:020000040800F2
:10000000D86F00204D030008ED7C000895560008CD
:1000100035770008E91500083DB900080000000028
:100020000000000000000000000000008D02000839
:100030000521000800000000E9020008A19700085F
:1000400067030008670300086703000867030008E8
:1000500067030008670300086703000867030008D8
:1000600067030008670300086703000867030008C8
:100070009D19000867030008A9190008B5190008B0
:10008000C1190008CD1900086703000867030008BC
:10009000ED15000867030008670300086703000800
:1000A0006703000867030008670300086703000888
:1000B00071980008670300086703000867030008D9
:1000C0006703000867030008670300086703000868
:1000D0006703000839A7000851A7000869A70008AE
:1000E0006703000867030008670300086703000848
:1000F00089980008670300087D98000867030008D6
:100100006703000867030008670300086703000827
:100110006703000867030008670300086703000817
:1001200067030008D9190008E519000867030008EB
:1001300067030008670300086703000867030008F7
:1001400067030008F915000867030008F17C000840
:10015000F1190008FD1900086703000881A70008CD
:1001600067030008670300086703000867030008C7
:100170006703000867030008670300080000000029
:100180006703000867030008DDA20008E9A2000871
:100190006703000867030008670300086703000897
:1001A00000000000000000006703000800F002F8F3
:1001B00000F05CF80AA090E8000C82448344AAF1A5
:1001C0000107DA4501D100F051F8AFF2090EBAE8A3
:1001D0000F0013F0010F18BFFB1A43F0010318477B
:1001E000C4E50000E4E500000A444FF0000C10F8FC
:1001F000013B13F0070408BF10F8014B1D1108BFA5
:1002000010F8015B641E05D010F8016B641E01F844
:10021000016BF9D113F0080F1EBF10F8014BAD1C94
:100220000C1B09D16D1E58BF01F801CBFAD505E0B2
:1002300014F8016B01F8016B6D1EF9D59142D6D30C
:10024000704700000023002400250026103A28BF34
:1002500078C1FBD8520728BF30C148BF0B60704738
:100260001FB50EF01CF91FBD10B510BD00F0DEF972
:100270001146FFF7F5FF0CF03AF900F0FCF903B472
:10028000FFF7F2FF03BC00F0FFF900002C4B1968E8
:100290000868B0E8F04F80F30988BFF36F8F4FF024
:1002A000000080F3118870470000000008480068D3
:1002B000006880F308884FF0000080F3148862B66D
:1002C00061B6BFF34F8FBFF36F8F00DF00BF00BF7A
:1002D00008ED00E0DFF80C00016841F470010160F6
:1002E000704700BF88ED00E0EFF30980BFF36F8F28
:1002F000134B1A681EF0100F08BF20ED108A20E97A
:10030000F04F106009B44FF0500080F31188BFF334
:100310004F8FBFF36F8F0CF099FE4FF0000080F30A
:10032000118809BC19680868B0E8F04F1EF0100F7A
:1003300008BFB0EC108A80F30988BFF36F8F704755
:10034000C8010020EFF3058070470000094880478E
:1003500009480047FEE7FEE7FEE7FEE7FEE7FEE7A7
:10036000FEE7FEE7FEE7FEE704480549054A064BBF
:100370007047000061980008AD010008D8630020B4
:10038000D86F0020D8690020D869002053EA020CF9
:1003900000F069802DE9F04B4FF00006002B1FBFE5
:1003A000B3FA83F503FA05F424FA05F65E4012BFAA
:1003B0001643B2FA82F502FA05F4C5F120051EBF14
:1003C00022FA05FC44EA0C04203556EA044C4FEAB4
:1003D000144418BF641C4FF000084FF0000990420D
:1003E00071EB030C39D3002919BFB1FA81F701FA77
:1003F00007F6B0FA80F700FA07F6C7F120071EBF2C
:1004000020FA07FC46EA0C062037B6FBF4FCA7EB03
:100410000507103F07F01F0BCBF120060CFA0BFB72
:100420002CFA06F644BFB3460026202FA4BF5E4632
:100430004FF0000B5BEA060C08BF4FF0010B19EB05
:100440000B09ABFB027C48EB0608C01B06FB02CC89
:100450000BFB03CC71EB0C01C1E70B460246414696
:100460004846BDE8F08B13B54FF000004FF0000197
:10047000AFF30080BDE81C40704710B54C1084EA13
:10048000530404D54042C1F1000138BF491E1B424C
:1004900004D55242C3F1000338BF5B1EFFF776FF5D
:1004A00014F0804F04D04042C1F1000138BF491E12
:1004B00014F0004F04D05242C3F1000338BF5B1E5A
:1004C00010BD032A40F2308010F0030C00F01580BC
:1004D00011F8013BBCF1020F624498BF11F801CB47
:1004E00000F8013B38BF11F8013BA2F1040298BFAC
:1004F00000F801CB38BF00F8013B11F0030300F016
:100500002580083AC0F0088051F8043B083A51F8B9
:1005100004CBA0E80810F5E7121D5CBF51F8043BBE
:1005200040F8043BAFF30080D20724BF11F8013B31
:1005300011F801CB48BF11F8012B24BF00F8013B93
:1005400000F801CB48BF00F8012B704710B5203AE6
:10055000C0F00B80B1E81850203AA0E81850B1E87C
:100560001850A0E81850BFF4F5AF5FEA027C24BF32
:10057000B1E81850A0E8185044BF18C918C0BDE829
:1005800010405FEA827C24BF51F8043B40F8043BF2
:1005900008BF7047D20728BF31F8023B48BF11F8A7
:1005A000012B28BF20F8023B48BF00F8012B704701
:1005B0004FF0000200B5134694469646203922BFFC
:1005C000A0E80C50A0E80C50B1F12001BFF4F7AF47
:1005D000090728BFA0E80C5048BF0CC05DF804EB29
:1005E000890028BF40F8042B08BF704748BF20F897
:1005F000022B11F0804F18BF00F8012B7047704795
:100600007047704710B500F009F8006810BD10B5CC
:10061000044600F003F8046010BD00000048704775
:100620007863002000487047786300207546FFF724
:10063000F9FFAE4605006946534620F0070085469F
:1006400018B020B5FFF790FEBDE820404FF000063F
:100650004FF000074FF000084FF0000B21F00701AA
:10066000AC46ACE8C009ACE8C009ACE8C009ACE8ED
:10067000C0098D46704710B50446AFF30080204690
:10068000BDE81040FFF7FBBD01491820ABBEFEE7F7
:10069000260002007047000000219FED100A104B59
:1006A00006E000BF70EEC00A491C09B2C0ED0F0A97
:1006B000D0ED0F0A10EE902A9A42F3DA06E000BF5E
:1006C00070EE800A491E09B2C0ED0F0AF5EEC00AAD
:1006D000F1EE10FAF4D34185704700000000B443F6
:1006E0000000B44330B40C4B02241C7024025C6044
:1006F000140A1C725A7200229A72DA72020A1A736F
:100700005873080A9873D9730448002303220068B9
:1007100030BC01490CF00CBE840B002034010020D9
:100720007CB501240820CDE9000400231A460921E4
:10073000314807F0A8F90520CDE9004000231A460A
:1007400003212E4807F09FF90620CDE900402B48F1
:1007500000231A4603214C3007F095F92420284B3A
:10076000CDE9000403F154020121A2F5D16007F0A4
:100770008AF9002442F21076204DCDE900649835C4
:100780003346204A2146E86807F006FCCDE90064BC
:100790001C4A33460C3A0021286907F0FDFB00F0A3
:1007A00039F81548B1EE040A80ED0D0A80ED0F0A04
:1007B00044850485C48411489FED130A80ED0D0A19
:1007C00080ED0F0A44850485C4849FED100A4C30E7
:1007D000611E80ED0D0A9FED0E0A80ED0F0A418526
:1007E0000485C48495ED0E0A85ED0D0A85ED0F0A8A
:1007F0006C852C85EC847CBD940B0020440E00207D
:100800001015002020E60008000070420000C4C25D
:1008100000008343F8B50CF077FF00250D4C0E4E19
:100820004FF42F77009006E0A570401CE0820A216B
:1008300068460CF0AFFA706910B9E08AB842F3D993
:10084000E18A0120B1F52E7F00D3A073E582A0706C
:10085000F8BD000030000020DC0E002010B5164C62
:100860009FED161AB4F92A0094ED0F0A00EE900AD3
:10087000B4F92800F8EEE00A01EE900AE06800EE14
:10088000810AF8EEE11AD4ED0E0A41EE810A07F072
:10089000AFFC84ED0C0AB4F92C0000EE900A20693C
:1008A000F8EEE00A07F0A4FCBDEEC00A10EE100A54
:1008B000A4F8420010BD0000DC0E00200000B4438C
:1008C00070B52749264800234D782C490678DFED7E
:1008D000250A2548DFED252A5C1E9FED253ADFED30
:1008E000251A9FED251A4A79BBEE0F2AB1EE040AAC
:1008F000022E19D0042E16D1042D14D0002A12D0A5
:10090000B2F1010212F0FF024A7115D0012A18D08B
:10091000022A1BD0032A1ED0042A04D180ED0D1A0E
:1009200080ED0F1A438570BD022DFCD0042AFAD247
:10093000521CE7E7448570BDC0ED0D0AC0ED0F2ADB
:10094000F8E780ED0D2A80ED0F3AF3E780ED0D0A10
:1009500080ED0F0AE6E7C0ED0D1AC0ED0F1AE1E7D2
:1009600058010020000086C2940B002000809243B2
:100970000080A4430000244200009A42300000207E
:1009800010B50F4C206907F043FBE06807F040FB0F
:1009900004F52C74206907F03BFBE06807F038FB96
:1009A0004C34206907F034FBE06807F031FB4C342D
:1009B000206907F02DFBE068BDE8104007F028BB78
:1009C000940B002010B50D4C092060730120607459
:1009D0000820A07304F1240090ED080A08F074F8D0
:1009E000617C04F1A80000EB810090ED000A08F0A2
:1009F00027F800202070E07010BD00004C0000209F
:100A000070B5254C254D2146227B4B7B6E7801200D
:100A100009782D78082A02D0092A09D01CE0012E75
:100A20001AD1CDB9032B17D0B1B92070A07018E03E
:100A3000012E11D185B9657C012D00D119B1032B8F
:100A400007D019B108E02070207105E02070A07077
:100A50000CE009B92070E070A078012808D1082ABC
:100A600001D100F083F8207B092801D100F09AF829
:100A7000E078012804D1207B092801D1FFF7A2FFEB
:100A80002079012806D1207B092803D1BDE87040D8
:100A900000F084BB70BD00004C00002085010020E8
:100AA00070B52C4C607B02282ED004221146032006
:100AB00008F006FC284E002560B32848007801287D
:100AC00005D07078012824D13078002821D1214820
:100AD000A573E5732430257490ED000A07F0F4FF48
:100AE0001C48E17B683000EB810090ED000A08F0C3
:100AF0000FF81848217C8C3000EB810090ED000A43
:100B0000BDE8704008F028B80420A073E07303200B
:100B1000607370BD00221146032008F0D1FB00284D
:100B2000F7D0B3EE040A0E490E4806F06DFF30B15F
:100B3000B3EE040A00210C4806F066FF28B970786D
:100B40000128E6D130780028E3D102206073A57037
:100B5000257070BD4C0000207F0100202300002084
:100B60005C0D00202C0C0020AC0D002010B50C4CAE
:100B70000820A0730120607404F1240090ED080A9D
:100B800007F0A2FF617C04F1A80000EB810090ED6A
:100B9000000A07F055FF00202070A07010BD000073
:100BA0004C00002003480321417300210170817033
:100BB000704700004C00002070B5284C607B012875
:100BC0002ED003221146104608F07AFB244E002551
:100BD00058B324480078012805D07078012823D123
:100BE0003078002820D11D48A573E5732430257482
:100BF00090ED000A07F068FF1848E17B683000EBD1
:100C0000810090ED000A07F083FF1448217C8C30AE
:100C100000EB810090ED000ABDE8704007F09CBF3A
:100C20000320A073E073607370BD0022114603209F
:100C300008F046FB0028F7D0B3EE040A0A490B4837
:100C400006F0E2FE28B970780128EDD1307800284E
:100C5000EAD101206073A570257070BD4C000020A2
:100C60007F010020230000205C0D00202C0C0020C0
:100C700010B5114C207B022801D0032807D10F4961
:100C80004A78012A03D1097809B9217829B1A178D4
:100C900001290FD1022804D005E001212170A170A3
:100CA000F8E7FFF789FF207B032803D1BDE8104058
:100CB000FFF7F6BE10BD00004C00002085010020AB
:100CC0002DE9F05F664F002501267878654C4FF0DE
:100CD000090A01281AD13878C0B9A079B0B9A6712B
:100CE0002670E57384F80DA00820A07304F1A80015
:100CF000667490ED010A07F0A3FEA17B04F12400C5
:100D000000EB810090ED000A07F0DEFEA0790128DB
:100D100032D100220821092008F0D2FADFF84891E8
:100D2000DFF848814FF0030B40B399F80000012829
:100D300006D1B3EE040A00214D4806F065FE38B92D
:100D400098F80110012917D198F80000002813D154
:100D50000A20A073434884F811B0A83090ED030A2C
:100D600007F06EFE3F48A17B243000EB810090ED40
:100D7000000A07F0A9FE2672BDE8F09F78780128E6
:100D800012D1387880B900220A21092008F098FA97
:100D900050B1E6740B20A0733248243090ED0B0A5A
:100DA000BDE8F05F07F090BE00220B21092008F09B
:100DB00087FA90B1E07A401CC0B2E0725028DBD9CB
:100DC00084F80DB00C20A0732648243090ED0C0A56
:100DD00007F07AFE2572E572CEE700220C2103208F
:100DE00008F06EFA022708B1207A58B300220C21CD
:100DF000032008F065FA0028BED0207A0228BBD173
:100E0000E07A401CC0B2E0723228B5D9257284F86D
:100E10000CA084F80DA066740820A073114824303B
:100E200090ED080A07F050FE0E48617CA83000EBF8
:100E3000810090ED000A07F003FEA772E5722570AD
:100E4000A57199E799F80000012807D098F80110DA
:100E5000012991D198F8000000288DD127728BE7E5
:100E6000820100204C000020230000207F01002090
:100E7000440E00202DE9F04764480025644C417879
:100E80004FF001094FF00708012915D1007898B9F2
:100E9000E07988B984F8079084F80090A573E57329
:100EA000657304F1A80084F811804E4690ED070A9E
:100EB00007F0C6FD26752572E07901285AD1002277
:100EC0001146104608F0FCF9514E524F243608B135
:100ED000207AE8B300220721104608F0F1F910B19A
:100EE000207D012868D000220721104608F0E8F98B
:100EF00010B1207D00286FD000221146104608F066
:100F0000DFF9002836D0207A032833D1E07A401C5C
:100F1000C0B2E07250282DD93D482572A8306574C2
:100F200090ED000A07F08CFD3B484F4680F800909A
:100F3000374884F815901C3090ED010A07F0B6FD93
:100F4000082020736073A772E5720920A07300E087
:100F500012E0022060742E48A83090ED020A07F0DB
:100F60006FFDA07B06EB800090ED000A07F0ACFD62
:100F7000E5712570BDE8F087B3EE040A002127482B
:100F800006F042FD28B978780128F3D13878002896
:100F9000F0D1052020741E4884F80E808C3090ED2E
:100FA000050A07F0D9FDA07B06EB800090ED000A52
:100FB000BDE8F04707F088BDB3EE040A18491948A8
:100FC00006F022FD28B978780128D3D13878002896
:100FD000D0D12575CEE7FFE7E07A401CC0B2E072C1
:100FE0006428C7D903202072094825748C30A57362
:100FF00090ED000A07F0B0FDA07B06EB800090EDBD
:10100000000A07F061FDE572B4E7000073010020FB
:101010004C0000207F01002042010020440E0020EF
:101020005C0D00202C0C00202DE9F05F544F0025B2
:1010300001267878534C4FF0040A012813D13878F0
:1010400088B9607878B9667026722670052060735A
:10105000A573E573257404F1A80084F811A090ED40
:10106000040A07F0EDFC6078012840D10022114607
:10107000052008F025F9DFF80C91DFF80C8109F163
:10108000680909F1240B08B1207C18B1787801288F
:101090002FD047E0B3EE040A00213C4806F0B4FC30
:1010A00018B13B480078022807D098F801100129B0
:1010B0001DD198F80000002819D10620A073E07314
:1010C000304884F810A0243090ED060A07F0FCFCAC
:1010D000E17B09EB810090ED000A07F019FD217C0E
:1010E0000BEB810090ED000A07F036FD2675BDE898
:1010F000F09F3878B0B906221146052008F0E0F8D4
:1011000080B12048A5732430E57390ED000A07F004
:10111000DBFCE17B09EB810090ED000A07F0F8FCB5
:101120002572E4E700221146052008F0C9F80028DE
:10113000DDD0207C0428DAD1B3EE040A1549164824
:1011400006F062FC38B998F801100129CFD198F85F
:1011500000000028CBD16573257465749BED000AEF
:1011600007F0FAFC0748617CA83000EB810090EDA5
:10117000000A07F065FC2673A57265702570B6E756
:101180006D0100204C0000207F010020440E002053
:10119000230000205C0D00202C0C00202DE9F047DE
:1011A000554C00254FF00108607C012827D0002213
:1011B00008210B2008F084F8504F514E4FF00D09D4
:1011C00004F1240A28B33878012805D07078012862
:1011D0001DD1307800281AD184F80E900520607453
:1011E0004548A83090ED050A07F02AFCA17B0AEBE0
:1011F000810090ED000ABDE8F04707F065BCE5739B
:101200000820A07365740B20607384F81380BDE818
:10121000F08700220D210B2008F052F8C0B1B3EE88
:10122000040A3849384806F0EFFB28B1387801281D
:1012300002D1E07A401CE072E07A642805D8707828
:101240000128E4D130780028E1D10C206073DEE77A
:1012500000220D210C2008F033F810B1E07C0128A9
:1012600012D000220D210C2008F02AF808B1E07CF1
:1012700090B10D210022084608F022F80028C6D0BF
:101280003878012812D014E0E07A401CC0B2E07235
:101290009628BCD9E57407E0E07A401CC0B2E07241
:1012A0009628B4D984F80D90E572B0E7E07A401C36
:1012B000E072E07A282805D870780128A7D1307824
:1012C0000028A4D10C4884F81180A830A57390EDB3
:1012D000010A07F0B5FBA17B0AEB810090ED000A43
:1012E00007F0F2FB0920207360730220A072E57200
:1012F000257025718BE700004C00002023000020A2
:101300007F0100205C0D00202C0C00202DE9F0470F
:101310005148DFF848A10025417801264FF00B091C
:10132000AAF1240401291AD10078C0B96079B0B9B2
:1013300066712670E57384F80D900D20A07305206A
:10134000607404F1A80090ED050A07F079FBA17B19
:101350000AEB810090ED000A07F0B6FBE5746079B6
:10136000012819D100220D210B2007F0A9FFDFF879
:10137000F0803C4F08B1E07C80B100220D210E20AE
:1013800007F09EFFF8B1E07A401CC0B2E0729628E8
:1013900002D984F80D90E572BDE8F087B3EE040A37
:1013A0003149324806F030FB18B198F800000128A6
:1013B00005D078780128EFD138780028ECD10E20BC
:1013C0006073E674E8E700220D210B2007F078FF38
:1013D00010B1E07C012815D0002208210B2007F075
:1013E0006FFF0028D8D0B3EE040A0021204806F091
:1013F0000BFB18B3B3EE040A1B491C4806F004FBB0
:1014000010BB1BE098F80000012805D0787801286F
:10141000C2D138780028BFD10820A0730F48667465
:10142000843090ED010A07F00BFBA17B0AEB8100F1
:1014300090ED000ABDE8F04707F046BB7878012838
:10144000AAD138780028A7D1092020736073022020
:10145000A072657125709FE7730100207000002065
:10146000230000207F0100205C0D00202C0C0020B8
:10147000440E002010B5002210211E200BF0F2FEB9
:101480000C49C86000F04CF800F06EF800F082F8EB
:1014900000F02EF800F014F8074800F0CDF80748E7
:1014A00000F0CAF8044800F0EFF8BDE81040034827
:1014B00000F0EAB828010020E41800200C190020F0
:1014C00010B5094C2068416941F040014161216833
:1014D0002823064A091DA06B01F046FF2068C16859
:1014E00041F01001C16010BD201A00205C070020EF
:1014F00010B5094C2068416941F040014161216803
:101500004223064A091DA06B01F02EFF2068C16826
:1015100041F01001C16010BD301B0020C607002043
:1015200038B50F4800210F4CC0F80210417002215D
:1015300001702068416941F0400141611420009030
:10154000074B2168143BA3F11402091DA06B01F0A5
:1015500044FD2068C16841F01001C16038BD000041
:1015600034080020641A00200849002008704860F0
:1015700008724872887206480068C16841F010011C
:10158000C16016220149024804F012B890080020F8
:10159000EC1A0020104A0021084611601318401C64
:1015A00080B259730B28F9D3552010730B48117171
:1015B00091609FED0B0A017780ED080A80ED090A22
:1015C00008480068C16841F01001C16002490B225F
:1015D0000D31044803F0ECBF140B0020840D0020F3
:1015E00000000000A81A0020FEE70000014801F0FA
:1015F00092BA0000E4180020014801F08CBA000003
:101600000C19002000B587B00091002102910391D0
:10161000082104910649884201D1012303E00549CC
:10162000884203D10223694601F016F907B000BDD4
:10163000E41800200C19002010B5044610488AB0A8
:10164000844202D10021084604E00E48844215D1AC
:101650000E210120059100210122CDE90612009101
:1016600001910291CDE903100E20CDE908206946D1
:10167000204601F055F9204601F07CFC0AB010BD6F
:10168000E41800200C1900200549884201D10221EC
:1016900003E00449884202D1102101F0CBB8704721
:1016A000E41800200C19002070B54FF6FF720023DB
:1016B0004AF201050BE0C45C62400024D6074FEA01
:1016C000520200D06A40641C082CF7DB5B1C8B4282
:1016D000F1DB42540844120A427070BD70B54FF6F7
:1016E000FF7200234AF201050BE0C45C6240002453
:1016F000D6074FEA520200D06A40641C082CF7DB80
:101700005B1C8B42F1DD0844D3B24178120A994246
:1017100002D18078904201D0002070BD012070BDC0
:10172000B0F5017F18D009DC502810D0512810D016
:10173000A0F50070023813D10A4806E0A0F5007049
:1017400005380BD002280BD1074800F001B9074833
:1017500000E0074800F0D7BC0648F6E70648F4E783
:10176000704700002C0C0020100D00205C0D0020A4
:10177000700D0020780C0020C40C002040F20123E2
:10178000A0F2012298420FD006DC052810D00628CE
:1017900010D1094800F09AB9022A07D0032A09D1CA
:1017A000064800BF00F0D4B80548FBE70548F9E754
:1017B0000548EFE770470000900E0020F80D00206C
:1017C000DC0E0020AC0D0020440E0020022801D3C6
:1017D00000207047024A00211044817101207047A7
:1017E0003408002004480179022902D00021417107
:1017F00070470121FBE700003C01002070B5037831
:101800004FF0FF359FED4F0A4F4A41F62C2440F22E
:10181000DC51DFED4E0A022B04D0012B02D0052B48
:101820005AD057E0C38BA34206D9068C8E4203D20E
:10183000C18C491EC18458E08B420CD2018CA1425C
:1018400009D9C18C491CC18459E0641AC484048D2F
:10185000641C048501E090F82410B0F926408C4205
:10186000F3DA04E00C44C484048D641E0485B0F9EA
:101870002640002CF6DB01EE103AB0F92630F8EEE7
:10188000411A81EE801A00EE101AF8EE401A21EE8D
:10189000201A81EE210A01EE103AF8EEC11A01EE8B
:1018A000101AB8EE412A81EE821A01EE200A01E0F8
:1018B00030EE600A10EE101A9142F9DA02E000BF31
:1018C00030EE200AB5EEC00AF1EE10FAF8D300BFF0
:1018D00080ED0E0A002070BDC38BA34207D9068C91
:1018E0008E4204D2018D491E0185284670BD8B426F
:1018F00007D2018CA14204D9018D491C0185012028
:1019000070BD01EE103A90F82410F8EE411A81EE05
:10191000801A00EE101AF8EE401A21EE201A81EE1D
:10192000210A01E030EE600A10EE101A9142F9DA55
:1019300002E000BF30EE200AB5EEC00AF1EE10FA68
:10194000F8D3C5E700F8FF450000B4430000B443F6
:1019500010B402780123022A03D0012A01D0052AFB
:101960001AD14269521C426190F84840012C10D0B3
:101970000A8852BAC28314B9028480F848304A886F
:1019800052BA0283898849BA4183828510BCFFF725
:1019900035BFC28B0284EBE710BC7047014801F0F1
:1019A000A9BB0000F41C0020014801F0A3BB00000B
:1019B000741B0020014801F09DBB0000541D002055
:1019C000014801F097BB0000941C0020014801F081
:1019D00091BB0000D41B0020014801F08BBB00002C
:1019E000B41D0020014801F085BB00007C190020D7
:1019F000014801F07FBB0000341C0020014801F0C9
:101A000079BB0000141E002001681823CAB2103AE6
:101A1000B2FBF3F2054B6FF30901032A9B5CC3652C
:101A200000D9091D816508467047000054E600088A
:101A300010B5014600208B698A6A4FF0C07453B11B
:101A4000B3F5005F15D072B1012A0CD0022A0AD07A
:101A5000032A09D104E01AB1012A06D0022A03D1CF
:101A6000C96AC90100D5012010BDC96AA142FAD0D6
:101A700010BD002AF7D0012AF2D0022AF3D0032A9F
:101A8000F3D010BD10B5046863608368402B036811
:101A900003D099600068C26010BD9A600068C160A0
:101AA00010BD30B50468256825F4802525600468DC
:101AB00063608368402B036803D099600068C2604C
:101AC00030BD9A600068C16030BD000070B5054649
:101AD00008783A4A00F00F000B461060087800249E
:101AE00000095060B1F80100F2EE090A40BA9060B6
:101AF000C9781E79090141EA1611D1601E79597918
:101B000006F00F0641EA062111611021BAEE090A1A
:101B10000BF006F882ED070A0C21F3EE0E0ABBEE7D
:101B20000E0AD0680AF0FCFF82ED080A0C21F2EEE2
:101B3000040ABAEE040A10690AF0F2FF82ED090AFB
:101B40009879DFED1F0A00EE100AB8EE400A82ED28
:101B50000C0AD87900EE100AB8EE400A82ED0D0AA0
:101B60006869401C686192ED080ABDEEC00A10EE7B
:101B7000100AA88592ED070A4FF4B47020EE200AEF
:101B8000F2EE090A80EE201ABDEEC10A10EE101A1C
:101B900003E0641C24B2A1F5B4718142F9DA03E0D8
:101BA000641E24B201F5B4710029F9DB00EE101AAD
:101BB0002C85B8EEC00A85ED0E0A70BDDC0A002047
:101BC000000034440A4A00F5807000231170506010
:101BD000FF20107250729072D07210735073907315
:101BE000FD20D07303480322014900680BF0A0BB1D
:101BF000BC0A0020340100200A4A00F5807000234E
:101C000011705060FF20107250729072D072107379
:101C100050739073FC20D07303480322014900687D
:101C20000BF086BBAC0A00203401002010EE903A85
:101C3000F2EE090A9FED131A60EE200A124A00F52F
:101C4000807080EE810A117050600F4910EE100A0A
:101C5000107210EE100A000A507210EE100A000CFA
:101C6000907210EE100A000ED0721373180A50739F
:101C7000180C9073180ED0730448002303220068D8
:101C80000BF056BB00003444CC0A00203401002085
:101C900038B504460068C168C9061ED501684068A9
:101CA0000090A06B0068016821F001010160A06B49
:101CB000006840680949C0F1280010F0FF00087072
:101CC00001D000F017F8A16B282009684860A06BCC
:101CD0000068016841F00101016038BD1800002072
:101CE0004269521C4261C87901490870704700007E
:101CF000000000202DE9F04707460024404E7AE01E
:101D0000305D3C2801D0641C74E0301980460579B0
:101D100090F80390601900F1060ABA456DD8281DA5
:101D2000C1B24046FFF7DAFC90B34846B9F1400F24
:101D300051D016DC0E283CD009DC0A2829D00B280B
:101D400031D00C2835D0B9F10D0F4FD131E00F282B
:101D50002FD020284AD0212831D0B9F12F0F45D1DA
:101D600033E0532831D009DC412834D050282CD01E
:101D700051282AD0B9F1520F38D126E0542824D066
:101D8000552822D0562820D0B9F1570F2ED128E05F
:101D90002FE01C482A464168491C416041461A48C8
:101DA00000F086F822E02A464146174800F0A8F8DD
:101DB0001CE02A464146144800F04EF916E02A4637
:101DC00041461148FFF78CFF10E02A4641460E4875
:101DD00000F01CF80AE02A4641460B4800F0F6F8ED
:101DE00004E02A464146084800F01CF90AF0FF04C6
:101DF00001E0A41DE4B2BC4282D3BDE8F08700003C
:101E00005C07002018000020E00B002010B50446FD
:101E100040690022401C6061B1F80500DFED1F0A37
:101E200000EE100AB8EE400A20EE201A9FED1C0AC0
:101E300021EE001A84ED0E1AC8798B6840EA03205F
:101E400001EE100A174BB8EEC11A21EE201A21EE4E
:101E5000000A03E030EE600A521C12B210EE100AC3
:101E60009842F7DA04E000BF30EE200A521E12B2A8
:101E7000B5EEC00AF1EE10FAF6D32285B1F90B00E7
:101E80000CF011F89FED081B53EC112B0CF072F8BD
:101E90000BF0DAFF2083A08510BD00000000B443E2
:101EA000000080380000B4439A9999999999B93FF4
:101EB0004269521C426149790170704770B50D4604
:101EC0000E4B01463E201870002058709970532127
:101ED000D970022119715A71110A9971D871187249
:101EE000092407211846FFF7DFFB22462846BDE8F4
:101EF0007040FF23014903F073BB0000D0050020B0
:101F000070B504460D4661694FF4B472491C6161B5
:101F1000B5F8051000205143890B00EE101AB8EEF9
:101F2000400A84ED0E0AE979AA6841EA02214FF4D9
:101F3000B4725143CA1701EB924189134FF4B47242
:101F400003E0401C00B2A1F5B4719142F9DA03E05C
:101F5000401E00B201F5B4710029F9DB2085B5F906
:101F60000B000BF0A0FF9FED131B53EC112B0CF09B
:101F700001F80BF069FF2083687B0BF0ABFF9FED4E
:101F80000F1B53EC112B0BF0F5FF0BF05DFFA08343
:101F9000A87B0BF09FFF9FED0B1B53EC112B0BF05D
:101FA000E9FF0BF051FF6083287C2072687C60722F
:101FB00070BD00009A9999999999B93F9A99999900
:101FC0009999C93FB81E85EB51B89E3F70B504463C
:101FD00040690D46401C606148790BF07BFF9FED26
:101FE0000D1B53EC112B0BF0C5FF0BF02DFFA08345
:101FF000A8790BF06FFF9FED091B53EC112B0BF031
:10200000B9FF0BF021FF6083287A2072687A607232
:1020100070BD00009A9999999999C93FB81E85EBAE
:1020200051B89E3F10B54269521C4261B1F805009B
:102030000BF050FF9FED051B53EC112B0BF09AFF9B
:102040000BF0C4FC0349886010BD00009A9999996F
:102050009999B93F000000204369DFED280A5B1C15
:10206000436125480B7A43704B7A63F307028B7AFE
:1020700063F30F22CB7A63F317420B7B63F31F6288
:1020800042604B7B63F307028B7B63F30F22CB7BB6
:1020900063F317420B7C63F31F6200EE102A826029
:1020A00020EE200ADFED160A80ED020A4B7C63F376
:1020B00007028B7C63F30F22CB7C63F317420B7D0B
:1020C00063F31F62C2604B7D63F307028B7D63F392
:1020D0000F22CB7D63F317420B7E63F31F62026115
:1020E0004A7F00EE102AB8EE400A80EE201A80EDFA
:1020F000051A897F8170704700000020CDCCCC3D4F
:102100000000C84270470A78552A15D14A78552AE6
:1021100012D102684FF4B473521C02604A885A43C9
:10212000D20B8281897949B28172C1EB011101EB35
:10213000410102EBC1010161704772B6FEE7000088
:1021400070B5284C607A01284AD1A07B002847D17D
:10215000B2EE0E0A2449254805F056FC30B9244851
:10216000417801293CD10078002839D12148002547
:102170000078012802D0022805D009E0072020734A
:102180006073A57204E00920207360730220A072BE
:10219000E5732574012060741248A574683090EDD1
:1021A000000A06F0B5FC0F48217C8C3000EB810062
:1021B00090ED000A06F0D0FC0A48617CA83000EBE4
:1021C000810090ED000A06F03BFC0648A17C183027
:1021D00000EB810090ED000A06F056FC6572257058
:1021E00070BD00004C0000205C0D00202C0C002075
:1021F0007F0100203E01002070B5204C607A01284C
:102200003AD1A07B002837D1B2EE0E0A1C491D48F6
:1022100005F0FAFB30B91C48417801292CD100782F
:10222000002829D100256573E57314482574657469
:102230006830A57490ED000A06F06AFC0F48217C16
:102240008C3000EB810090ED000A06F085FC0B4815
:10225000617CA83000EB810090ED000A06F0F0FBF5
:102260000648A17C183000EB810090ED000A06F0D2
:102270000BFCA5726572257070BD00004C0000203B
:102280005C0D00202C0C00207F0100202DE9F04384
:10229000A14C0025A14B94F80080B8F1000F27D184
:1022A000002608F1020901E046450BDB4E4509DC3A
:1022B00006EB460707EB030C8CF80110D8558CF899
:1022C000022008E006EB460707EB030C8CF80150F0
:1022D000DD558CF80250761C062EE5DDA688761CAE
:1022E000B6B2A680322E03D901262670A58002E060
:1022F000B8F1010F28D194F80080002608F10209F6
:102300000DE046450BDB4E4509DC06EB460707EBC7
:10231000030C8CF80110D8558CF8022007E006EB6E
:10232000460C0CEB03077D7003F80C50BD70761C57
:10233000062EE6DDA688761CB6B2A680322E03D91C
:1023400002262670A58002E02678022E29D194F874
:102350000080002608F102090DE046450BDB4E45E2
:1023600009DC06EB460707EB030C8CF80110D85587
:102370008CF8022008E006EB460707EB030C8CF80C
:102380000150DD558CF80250761C062EE5DDA6883E
:10239000761CB6B2A680322E03D903262670A580FD
:1023A00002E02678032E29D194F80080002608F157
:1023B00002090DE046450BDB4E4509DC06EB4607FE
:1023C00007EB030C8CF80110D8558CF8022008E0BC
:1023D00006EB460707EB030C8CF80150DD558CF833
:1023E0000250761C062EE5DDA688761CB6B2A680C5
:1023F000322E03D904262670A58002E02678042E0A
:1024000028D194F80080002608F102090DE0464525
:102410000BDB4E4509DC06EB460707EB030C8CF89B
:102420000110D8558CF8022007E006EB460C0CEBA7
:1024300003077D7003F80C50BD70761C062EE6DD98
:10244000A688761CB6B2A680322E03D90526267041
:10245000A58002E02678052E2BD1002627781BE0E8
:10246000BE4201DB4E4517DDB6B106EB460C0CEB68
:10247000030888F8015003F80C5088F80250761CC5
:10248000062EEDDDA688761CB6B2A680322E10D9B7
:1024900006262670A5800FE006EB460C0CEB030821
:1024A00007F1010988F8011003F80C0088F80220F0
:1024B000E5E72678062E21D1A146002624781FE0E4
:1024C000A64201DB46451BDDD6B1012E18D006EB36
:1024D000460C0CEB03077D7003F80C50BD70761CA6
:1024E000062EEDDDB9F804104846491C89B2A9F85A
:1024F0000410322902D90570A9F80450BDE8F08310
:1025000006EB460C0CEB030704F10108797003F8A5
:102510000C00BA70E3E7000024000020960A0020B7
:1025200030B541F658352A460A21084805F004F925
:10253000044606482A460A214C3005F0FDF8012CD5
:1025400001D1012800D0002030BD0000AC0D0020DA
:102550000948417802290ED1007802280BD007499A
:1025600000200870064981F844004C3181F844008D
:1025700004490120087070474C01002059000020D8
:10258000AC0D002030000020014840797047000069
:102590003C0100200148C078704700003C01002049
:1025A00001488079704700003C0100200148007913
:1025B000704700003C010020174A9FED150ADFED2F
:1025C000150A1178052801EB410303EBC10102EB69
:1025D00041011AD2DFE800F0030507090B00488E1D
:1025E00006E0888E04E0C88E02E0088F00E0488F85
:1025F000A0F2F731122907D9A0F5806000EE100A89
:10260000B8EEC01A81EE200A70479FED040A7047A9
:102610000000000000002544340800200000804431
:10262000324910280A7802EB420303EBC20201EBA5
:10263000420158D2DFE800F0080D12171C21262BAA
:1026400030353A3F44494E5391F8440000F00100C0
:10265000704791F84400C0F34000704791F844007F
:10266000C0F38000704791F84400C0F3C000704789
:1026700091F84400C0F30010704791F84400C0F393
:102680004010704791F84400C0F38010704791F8F3
:102690004400C0F3C0107047B1F84400C0F30020FC
:1026A0007047B1F84400C0F340207047B1F84400CF
:1026B000C0F380207047B1F84400C0F3C0207047D9
:1026C000B1F84400C0F300307047B1F84400C0F3E3
:1026D00040307047B1F84400C0F380307047B1F823
:1026E0004400C00B704700207047000034080020F1
:1026F0000B490A7802EB420303EBC20201EB4201F1
:1027000028B1012806D0022807D000207047B1F96F
:102710003C007047B1F93E007047B1F94000704786
:102720003408002009490A7802EB420303EBC20295
:1027300001EB420118B1012804D00020704791F844
:102740004200704791F843007047000034080020B1
:1027500009490A7802EB420303EBC20201EB420192
:1027600018B1012804D00320704791F83000704759
:1027700091F83100704700003408002070B5294DF1
:10278000294C2878B8B994ED0F0AD4ED0E0AE06808
:1027900005F02EFD84ED0C0AB4F92C0000EE900A31
:1027A0002069F8EEE00A05F023FDBDEEC00A10EE48
:1027B000100AA4F842002878012801D0022830D15C
:1027C000B4F92A0094ED0F0A00EE900A9FED171A53
:1027D0001748F8EEE00A4FF4B47290F91C1000EEBE
:1027E000810A11FB02F100EE901A90ED081AE068E0
:1027F000F8EEE00A70EE810A05F0FAFCB1EE400A4C
:1028000084ED0C0AB4F92C0000EE900A2069F8EE71
:10281000E00A05F0EDFCBDEEC00A10EE100AA4F8C7
:10282000420070BD1E010020E00B00200000B443F8
:10283000840D002090F82020012A07D0022A05D01C
:10284000416A41F480214162012070470068426979
:102850000A43426100207047F0B590F820500468A8
:10286000A468012D05D0022D03D0416A41F48021D6
:1028700053E014F0406F01D1E5004BD5C4F301647F
:10288000022C03D9416A41F4000146E00125A5402C
:102890001D608D684FF4C0739DB1CE6835434E689E
:1028A00045EAC605066803EB0417F5514FF4C275F7
:1028B000076805EB04150E697E51097D012905D0D5
:1028C00009E00E88CD6845EA4655EBE701684E59A8
:1028D00046F480764E511179D2F805504FF4C67601
:1028E00041EA0525016806EB04168D511178D2F8EE
:1028F00001204FF4C47541EA0221026805EB04157A
:102900005151006803EB0411425842F00102425059
:102910000020F0BD416A41F4001141620120F0BD88
:1029200010B590F82020012A07D0022A05D0416A6C
:1029300041F480214162012010BD3B48D0F80022C3
:1029400042F00102C0F80022D0F8002222F47C52AA
:10295000C0F80022D0F800224B6A42EA0322C0F8F5
:1029600000220A7D02F01F0301229A40D0F81C3297
:102970009343C0F81C32CB69B3B9D0F80C329343FF
:10298000C0F80C328C894B6864F31F434C6900EB30
:10299000C404C4F840320C890B6864F31F434C69CB
:1029A00000EBC404C4F84432CB69012B16D1D0F833
:1029B0000C321343C0F80C320C884B6864F31F438D
:1029C0004C6900EBC404C4F840320C89CB6864F352
:1029D0001F434C6900EBC404C4F844328B69002BDC
:1029E000D0F804320ED01343C0F804320B69002B28
:1029F000D0F8143208D01343C0F81432096A012900
:102A000004D008E09343EFE79343F5E7D0F81C12B6
:102A10001143C0F81C12D0F8001221F00101C0F8D7
:102A20000012002010BD000000640040704730B567
:102A300090F82040012C05D0022C03D0416A41F4CB
:102A400080215DE00468002955D02469A40754D092
:102A50004FF4D874056804EB01142D5915F00405E2
:102A6000956005682D594ED0ED08556005682C59C4
:102A700004F00204D4604FF4DA74056804EB011426
:102A80002D5905F00F05156105682D59C5F307256A
:102A9000956105682C59240C54614FF4DC7204686C
:102AA00002EB0112A4581C700468A458240A5C703C
:102AB0000468A458240C9C700468A258120EDA70A2
:102AC0004FF4DE72046802EB0112A4581C71046812
:102AD000A458240A5C710468A458240C9C710468EE
:102AE000A258120EDA71006881B1016941F020012B
:102AF0000161002030BDE468A8E7416A41F400119B
:102B00004162012030BD6D0D1560AFE7C16841F035
:102B10002001C160EDE72DE9F05F05460068002463
:102B20004669D0F804908768D0F80CB0D0F810A0AF
:102B3000D0F81880F10748D0F90714D0012181603E
:102B4000B80703D5284600F042FA0CE0780702D512
:102B50004FF4006407E0380702D54FF4805402E0D8
:102B6000284600F033FAF80516D529684FF480702E
:102B70008860B80503D5284600F02BFA0CE07805EC
:102B800002D544F4005407E0380502D544F48044EB
:102B900002E0284600F01CFAF80316D529684FF425
:102BA00080308860B80303D5284600F014FA0CE0A2
:102BB000780302D544F4004407E0380302D544F416
:102BC000803402E0284600F005FA300707D55FEAB6
:102BD000CB6004D52968102044F40074C8607007E5
:102BE0004FF0080707D55FEA0B7004D52868C76067
:102BF000284600F099F9B00706D52868C068800714
:102C000002D0284600F092F9700607D55FEACA6044
:102C100004D52968102044F480640861B00607D503
:102C20005FEA0A7004D528680761284600F08EF92B
:102C3000F00606D528680069800702D0284600F013
:102C400087F9B00308D55FEAC96005D52968102067
:102C50004860284600F08CF9F00307D55FEA097058
:102C600004D528684760284600F0B6F9300446D5F8
:102C70005FEA497040D5F00504D55FEAC87001D01D
:102C800044F00104B00504D55FEA887001D544F032
:102C90000204700504D55FEA487001D544F00404CD
:102CA000300529D518F0700F26D008F070004028A4
:102CB00015D006DC102809D020280AD0302816D1DB
:102CC0000AE050280ED0602811D10EE044F008042C
:102CD0000DE044F010040AE044F0200407E044F062
:102CE000400404E044F0800401E044F48074286867
:102CF000816921F070018161296804204860002CFD
:102D000005D0686A204368622846FFF78FFEBDE859
:102D1000F09F70B5040003D094F8200010B104E0D7
:102D2000012070BD204600F081F82068016841F064
:102D30000101016000F082FC0546052604E000F078
:102D40007DFC401B0A2811D820684068C007F6D0D7
:102D50002068016821F00201016000F06FFC054667
:102D60000BE000F06BFC401B0A2806D9606A40F4B7
:102D70000030606284F82060D2E7206840688007F5
:102D8000EFD4207E0128206801683DD021F0800129
:102D90000160607E01282068016838D021F0400180
:102DA0000160A07E01282068016833D021F0200155
:102DB0000160E07E0128206801682ED041F01001FA
:102DC0000160207F01282068016829D021F00801D6
:102DD0000160607F01282068016824D021F004018F
:102DE0000160D4E902010843D4E904121143084305
:102DF0006168491E08432168C861002060620120A3
:102E000084F82000002070BD41F08001C0E741F04F
:102E10004001C5E741F02001CAE721F01001CFE7EA
:102E200041F00801D4E741F00401D9E7F0B587B0DB
:102E3000044614216846FDF7BBFB364B3648DFF8E5
:102E4000D0E01968D4F800C0334A032502260927C8
:102E500010300024491CF44522D11960012907D102
:102E6000016841F000710160006800F00070059099
:102E7000106840F0080010601068CDE9005600F0BE
:102E80000800CDE9047069462448CDE9024500F008
:102E9000B5FA00220521142000F06EFC142033E066
:102EA000DFF87CE0F44531D1D0F800C04CF0806C04
:102EB000C0F800C0D0F800C001290CF0806CCDF83B
:102EC00014C0196007D1016841F000710160006809
:102ED00000F000700590106840F00200106010686B
:102EE00002AB00F0020005904FF44050CDE900061F
:102EF00083E8B00069460B4800F080FA0022052103
:102F0000412000F039FC412000F028FC07B0F0BD62
:102F100000640040B401002030380240000C024040
:102F200000680040000402407047000000B589B00E
:102F300007AB6A4600210448FFF779FD07A900980E
:102F4000FEF7EEFB09B000BDE4180020704700005A
:102F500000B589B007AB6A4601210448FFF767FD59
:102F600007A90098FEF70AFC09B000BD0C19002063
:102F70007047000070B5044690F82000012804D086
:102F8000606A40F40020606218E0022084F82000AB
:102F90002068016821F00101016000F04FFB054647
:102FA0000EE000BF00F04AFB401B0A2808D9606A07
:102FB00040F400306062052084F82000012070BDDC
:102FC00020684068C007EDD1606270BD70477047EF
:102FD000704770477047704770472DE9F0410446CD
:102FE00080680025069E80280ED094F834000128C1
:102FF0000FD0012084F8340094F8350001280AD05D
:1030000002252846BDE8F0814FF4807060650125F7
:10301000F7E70220F6E7022084F835002068076809
:1030200047F4802707602068036133462046FEF797
:1030300029FD2068016841F001010160E1E72DE907
:10304000F0410446876D00F0F9FA064694F8350021
:103050000025022806D08020606584F834500120C5
:10306000BDE8F0812068016821F016010160206848
:10307000416921F080014161206C08B9A06C20B148
:103080002068016821F0080101602068016821F0D2
:10309000010101600CE000F0D1FA801B052807D97E
:1030A00020206065032084F8350084F83450D7E789
:1030B00020680068C007EED194F85C103F2088407B
:1030C000B860012084F8350084F834500020C7E748
:1030D00090F83510022903D0802141650120704706
:1030E000052180F835100068016821F001010160B8
:1030F000002070472DE9F84304464FF00009CDF851
:10310000009063484FF41651A56D0068B0FBF1F7CD
:103110002E6894F85C10082000FA01F131420FD0BB
:1031200021680A6852070BD50A6822F004020A6077
:1031300094F85C108840A860606D40F00100606504
:1031400094F85C104FF0010808FA01F0304208D002
:1031500021684969090604D5A860606D40F0020045
:10316000606594F85C1004208840304208D02168E3
:103170000968890704D5A860606D40F004006065A7
:1031800094F85C1010208840304218D021680968FB
:10319000090714D5A86020680168490304D50068B0
:1031A000000308D5A16C07E00168C90503D40168D4
:1031B00021F008010160216C09B12046884794F88C
:1031C0005C1020208840304231D021680968C9064F
:1031D0002DD5A86094F8350005282068016806D030
:1031E000490347D5006800031DD4616C1CE021F041
:1031F000160101602068416921F080014161206C65
:1032000008B9A06C20B12068016821F008010160B4
:1032100094F85C103F208840A86084F8358084F8DA
:103220003490216D1FE0E16B09B120468847606D45
:1032300000282BD0606DC00714D0052084F835001D
:103240002068016821F0010101600098401C009095
:10325000B84203D820680068C007F6D184F83580EA
:1032600084F83490E16C002910D001B02046BDE80C
:10327000F04308470168C905D5D4016821F0100161
:10328000016084F8358084F83490CCE7BDE8F88399
:10329000C40100202DE9F041044600F0CFF90646B4
:1032A0005CB1022084F83500002584F83450206891
:1032B000016821F0010101600DE00120BDE8F0810D
:1032C00000F0BCF9801B052805D92020606503208B
:1032D00084F83500F2E720680068C007F0D1226862
:1032E000116820480140D4E901031843D4E90336AA
:1032F0003343184363691843A3691843E3691843C8
:10330000236A18430843616A042903D1D4E90B13E3
:1033100019430843106020684069666A20F007017D
:1033200030460E43012704280CD1A06A0643E06A08
:1033300040B12046FEF77CFB20B14020606584F858
:103340003570BAE7206846612046FEF75DFB94F8C9
:103350005C203F2191408160656584F835700020D4
:10336000ACE700003F8010F02DE9F0410446866D87
:1033700090F83400002501280DD0012084F8340095
:1033800094F835700020012F07D084F8340002250E
:103390002846BDE8F0810220FBE7022784F835705B
:1033A00060652046FEF77DFB94F85C103F20884066
:1033B000B0602068016841F016010160206C20B106
:1033C0002068016841F0080101602068016841F04F
:1033D00001010160DCE7000070B5044600F02EF941
:1033E0000546601C02D004480078044400F026F929
:1033F000401BA042FAD370BDB80100202DE9F84F60
:10340000DFF8F8A10022012403254FF00F090AF18B
:10341000040BAAF1040E00BF0B6804FA02F6334055
:10342000B34270D10F7907F00307012F01D0022FAB
:1034300016D187684FEA420805FA08FC27EA0C070C
:10344000D1F80CC00CFA08FC4CEA070CC0F808C014
:103450004768B7430E79C6F3001696403E43466070
:103460000E79F643B6070AD0C7684FEA420C05FA50
:103470000CF6B7438E6806FA0CF63E43C6600E792A
:1034800006F00306022E10D1D60800EB8608D8F805
:10349000206057074FEAD76C09FA0CF7BE430F6953
:1034A00007FA0CF73743C8F8207006684FEA420C59
:1034B00005FA0CF7BE430F7907F0030707FA0CF77C
:1034C000374307604E6816F4403F1CD04C4E3768B7
:1034D00047F480473760366822F0030706F48046D9
:1034E0000096484E07EB060CDCF8086897073F0F7C
:1034F00009FA07F826EA0806DFF80C81404503D1EF
:103500004FF0000841E072E0DFF80081404502D151
:103510004FF0010839E0DFF8F880404502D14FF064
:10352000020832E0DFF8EC80404502D14FF003089A
:103530002BE0DFF8E480404502D14FF0040824E09E
:10354000DFF8D880404502D14FF005081DE0DFF8D4
:10355000D080404502D14FF0060816E0DFF8C48065
:10356000404502D14FF007080FE0DFF8BC8040452E
:1035700002D14FF0080808E0DFF8B080404502D1E2
:103580004FF0090801E04FF00A0808FA07F848EA86
:103590000608CCF80888DAF800605746D1F804C06D
:1035A0009E435FEACC2C00D51E433E60DBF80060F2
:1035B0005F46D1F804C09E435FEA8C2C00D51E43C1
:1035C0003E60DEF800607746D1F804C09E435FEAB3
:1035D0008C3C00D51E433E60084F083F3E68D1F842
:1035E00004C09E435FEACC3C00D51E433E60521CA3
:1035F000102AFFF411AFBDE8F88F0000083C01402D
:103600004438024000300140000002400004024003
:1036100000080240000C024000100240001402406A
:1036200000180240001C024000200240002402401A
:103630000AB1816170470904FBE700000148806816
:1036400070470000B80100200248816802781144E8
:1036500081607047B80100200B4810B5016841F443
:1036600000710160016841F480610160016841F40A
:1036700080710160032000F09FF8002000F006F840
:1036800000F050F8002010BD003C024030B5054667
:10369000204887B00024016841F001010160006802
:1036A00006A900F00100009001A800F043FD049875
:1036B000B0B100F065FD400017494FF08042B0FB0B
:1036C000F1F11648491E026040F2E732C0E90324D6
:1036D000C0E90114846100F0CFFF040003D015E0BD
:1036E00000F04EFDE8E70D4801F03CF804000DD174
:1036F0001C2000F033F8102D07D2002229461C2090
:1037000000F03AF80648056000E0012407B02046C2
:1037100030BD00004038024040420F00741E0020BF
:10372000BC0100200C4882B0016841F48041016076
:10373000006800F4804000900748001F016841F0D5
:10374000805101600068002200F0805000900F213D
:10375000901E02B000F010B844380240002809DB87
:1037600000F01F02012191404009800000F1E0209B
:10377000C0F8001170470000F0B40E4B1B680C46F7
:10378000C3F30223C3F10705042D00D90425191D35
:10379000072901D2002300E0DB1E012606FA05F10D
:1037A000491E214099409E40761E16403143F0BC90
:1037B00008F0F2B90CED00E0064900F007020868D5
:1037C0004FF6FF03184040EA0220034A1043086006
:1037D000704700000CED00E00000FA057047D0F8DB
:1037E000080507F04FB901EBC10200EB8202D0F8E7
:1037F0000805D26C07F0A4B801EBC10200EB82020D
:10380000D0F80805D2F88C2207F0F5B8D0F80805F2
:1038100007F03AB90A0601F00F0101EBC10100EB14
:10382000810101D53C3101E001F51F71006807F00D
:1038300071BE70B5044601F00F006268904201D974
:10384000012070BD0B0601F00F0101EBC10104EB7B
:1038500081014FF001024FF0000503D581F83D20B2
:103860003C3103E081F87D5201F51F718D700870C5
:1038700094F8BC04012808D084F8BC24206807F020
:10388000FFFC84F8BC54002070BD022070BD2DE9FF
:10389000F04104460F0601F00F0000EBC00104EBFD
:1038A00081014FF001064FF0000503D581F83D601E
:1038B0003C3103E081F87D5201F51F710870CA6048
:1038C0000B714A7802B10881022B00D14D7194F836
:1038D000BC04012809D084F8BC64206807F0C8FB48
:1038E000284684F8BC54BDE8F0810220FBE770B59F
:1038F0000C4601F00F0505EBC50100EB8101C1F895
:103900009432C1F88C220023C1F89C3281F87D32B8
:1039100081F87C52036901F51F71012B00D14A61C6
:103920002207027C006803D007F002FD002070BD72
:1039300007F0ECFBFAE770B504460D4601F00F0006
:103940006168884201D9012070BD29064FF0000648
:103950004FF0010207D500EBC00104EB810181F8B3
:103960003D203C3107E005EBC50104EB810181F806
:103970007D6201F51F718A70087094F8BC040128FB
:1039800007D084F8BC24206807F0A6FC280702D0E2
:1039900007E0022070BD217C04F2C442206807F0D9
:1039A00043FC84F8BC64002070BD70B50C4601F087
:1039B0000F0505EBC50100EB81014B65CA640023CF
:1039C000CB65012381F83D3001F83C5F0369012B91
:1039D00000D14A612207027C006803D007F0A8FCEE
:1039E000002070BD07F092FBFAE700002DE9FC5FB4
:1039F00005680446284607F00AFE00287DD12068A5
:103A000007F031FE002878D0D5F80808C0F30D2063
:103A1000C4F8FC04206807F026FE800704D520685F
:103A2000416901F002014161206807F01CFEC106F6
:103A300004F2C440009034D52068816921F010015F
:103A400081612F6A07F00F0000EBC00004EB8006D5
:103A5000C7F3434006F51F76022802D0062811D08E
:103A60001AE047F6F070074216D0C7F30A1217465D
:103A70002846316907F0FBFD306938443061306A0F
:103A8000384408E008222846009907F0F0FD306A23
:103A9000C7F30A11084430622068816941F01001BF
:103AA0008161206807F0DFFD00034FF0080B4FF045
:103AB000000A4FF001097CD50026206807F0B2FD0E
:103AC000074674E0F80770D0F1B2206807F0C3FD34
:103AD0008046C00707D005EB4611C1F8089B314668
:103AE000204604F00BF95FEA087024D505EB461177
:103AF000C1F808BB2068016C00E025E200EB46102D
:103B00000191D0F8082BFC4B994205D9110403D53B
:103B10004FF40041C0F8081B204600F051FAF64966
:103B20000198884207D92069012804D12068012121
:103B3000009A07F079FB5FEAC86004D505EB4611EF
:103B40001020C1F8080B5FEA88701DD5686900066F
:103B500005D5D5F8040840F48061C5F8041806EBD3
:103B6000C60004EB800090F87F1200F51F70012959
:103B700005D180F803A0F1B2204600F0EBF905EB87
:103B800046110220C1F8080B5FEA886004D505EBF6
:103B900046102021C0F8081B5FEA884005D505EBD8
:103BA00046104FF40051C0F8081B7F08761C002F08
:103BB00088D1206807F057FD40036FD5206807F0D3
:103BC0002AFD0746002667E0F80763D0F1B22068B7
:103BD00007F02FFD8046C00723D006F00F0209FA38
:103BE00002F0D5F834288243C5F8342805EB461096
:103BF000C0F80899206901280FD106EBC60004EB34
:103C00008000D0E912211144C16436B9606D20B939
:103C100020680121009A07F007FBF1B22046FFF768
:103C2000E2FD5FEA087003D505EB4611C1F808B95B
:103C30005FEAC86004D505EB46111020C1F80809F9
:103C40005FEA486004D505EB46104021C0F808192A
:103C50005FEA887017D53146284607F0ABFC06EBC3
:103C6000C60004EB800090F83F103C30012905D1DC
:103C700080F803A0F1B2204600F068F905EB461188
:103C80000220C1F808095FEA086003D531462046E2
:103C900004F09AF87F08761C002F95D1206807F071
:103CA000E2FC002811DAD5F8040820F00101C5F87B
:103CB000041894F8F40401282BD0204600F064F98D
:103CC0002068416901F000414161206807F0CBFCA8
:103CD00000050BD5D5F80808C00702D0204600F033
:103CE00077F92068416901F400614161206807F0BB
:103CF000BAFCC00466D5D5F8040820F00100C5F868
:103D000004081021206807F055FC00214FF67F328F
:103D10001FE084F8F4A400212046FFF75FFDCFE701
:103D200005EB4110C0F80829D0F8003923F400133E
:103D3000C0F80039C0F8082BD0F8003B23F400137A
:103D4000C0F8003BD0F8003B43F00063C0F8003BF4
:103D5000491C60688842E3D8D5F81C0840F001117E
:103D6000C5F81C18206B002828460DD0D0F8840810
:103D700040F00B01C5F88418D5F8440840F00B0159
:103D80002846C5F844180DE0D0F8140842F22B017B
:103D90000843C5F81408D5F8100840F00B01284670
:103DA000C5F81018D0F8000820F4FE61C5F8001816
:103DB000217C2068009A07F037FA2068416901F4F5
:103DC00080514161206807F04EFC800415D52068C1
:103DD00007F08EF9206807F00DFCE06000F0CAF9EA
:103DE0000146227B206807F073FC204600F0B6F8FD
:103DF0002068416901F400514161206807F033FCFB
:103E0000000707D5204600F0C3F82068416901F09B
:103E100008014161206807F026FC000616D5A86954
:103E200020F08000A86101260DE000BF06EBC6006F
:103E300004EB800090F87F02012803D1F1B2204604
:103E4000FFF7E8FC761C6068B042EFD8206807F006
:103E50000AFCC00221D501264F4616E005EB4610AC
:103E6000D0F8001906EBC60004EB800090F8402063
:103E7000012A09D1002907DA80F83F70F0B240F03A
:103E800080012046FFF7C6FC761C6068B042E5D88A
:103E90002068416901F480114161206807F0E3FB6B
:103EA000800234D501204B4629E000BF05EB4011CC
:103EB000D1F8001B00EBC00204EB820696F88022CA
:103EC000012A1BD1002919DA94F8FC2401F480316D
:103ED00002F00102914211D186F87F32A96941F0C6
:103EE0008002AA616969090608D4D5F8040840F47B
:103EF0000070C5F8040805E00A30544F401C6168A2
:103F00008142D3D82068416901F4001141612068E1
:103F100007F0A9FB400007D52046FFF760FC2068AA
:103F2000416901F080414161206807F09CFB400736
:103F30000AD520684568680702D52046FFF766FC69
:103F40002068416829434160BDE8FC9FD0F808051E
:103F500006F0B9BDD0F8080506F0C9BD70B5044635
:103F6000C068012570B1022801D0FEF7E6F82946A5
:103F7000D4F8080506F029FED4F80805BDE870401D
:103F800006F0DEBD0025F2E7D0F8080506F006BE13
:103F9000D0F8080506F00CBE10B5044690F8BC0435
:103FA00001280BD0012084F8BC0484F83810206864
:103FB00007F07CFB002084F8BC0410BD022010BD7B
:103FC000D0F8082500F2C441104606F00ABE0000F1
:103FD00010B50446D0F8080506F03CFE2068D0F87D
:103FE000001E41F00101C0F8001E206A002804D024
:103FF0000248016841F00601016010BD10ED00E0CB
:104000002DE9F0470E46050065D0DFF81481D8F899
:104010000000F7B200F00F00B04207D288F800703D
:10402000D8F8000000F00F00B04254D128683D4C91
:10403000810712D5400703D5206840F4E050206086
:104040002878000703D5206840F46040206020688D
:10405000A96820F0F000084320602878C0072DD020
:10406000304968680839012812D0022813D0032883
:1040700011D00968890700292DDA216821F0030190
:1040800001432160FFF7DAFA814641F2883A0EE0F7
:1040900009688903EFE709688901ECE7FFF7CEFAC1
:1040A000A0EB0901514502D90320BDE8F087206843
:1040B000696800F00C00B0EB810FEFD1D8F8001068
:1040C000404601F00F01B14207D90770006800F0C7
:1040D0000F00B04201D00120E7E72878400705D55E
:1040E0002068E96820F4E050084320602878000741
:1040F00006D52068296920F4604040EAC1002060AC
:1041000000F05EF82168084AC1F30311515CC84011
:104110000649086006480068FFF7B8FA0020C4E7BF
:10412000003C0240083802405CE60008C401002060
:10413000BC0100200F2202600C4A136803F0030345
:104140004360136803F0F0038360136803F4E053E3
:10415000C36012684FF4E05303EAD20202610448DC
:10416000006800F00F000860704700000838024047
:10417000003C02400148006870470000C401002074
:104180000448054900680968044AC1F38221515C6A
:10419000C8407047C4010020083802406CE600089F
:1041A0000448054900680968044AC1F34231515C7A
:1041B000C8407047C4010020083802406CE600087F
:1041C000154810B5006810F00C02144813D01449BB
:1041D000042A0FD0082A0ED10F4C241F226823680E
:1041E00002F03F025B0207D52068C0F38810A0FBF5
:1041F000010106E0084610BD2168C1F38811A1FB4A
:1042000000010023FCF7C2F82168C1F30141491CF9
:104210004900B0FBF1F010BD083802400024F40062
:10422000001BB7002DE9F84F04006ED02078DFF8AE
:104230004C93C007A9F104054AD009F104000168B4
:10424000C1F38101012908D00068C0F38100022870
:104250000AD1D9F80000400206D52868800337D576
:1042600060680028E1D033E06068B0F5803F10D08E
:10427000B0F5A02F286810D020F48030286028687E
:1042800020F4802028606068A8B1FFF7D7F90646BF
:104290000DE0286840F48030F4E740F48020286086
:1042A000F7E700BFFFF7CAF9801B642873D82868B6
:1042B0008003F7D50CE0FFF7C1F9064605E000BF23
:1042C000FFF7BCF9801B6428F0D828688003F7D476
:1042D0002078DFF8AC8280074FF0000A3ED5A7486F
:1042E000001D016811F00C0F08D00068C0F38100B8
:1042F00002280BD1D9F80000400207D428688007B3
:1043000016D5E068012800D112E033E1E068B8B1C9
:104310000120C8F80000FFF791F9064605E000BF4C
:10432000FFF78CF9801B0228C0D828688007F7D5D2
:104330002868216920F0F80040EAC10028600DE0FB
:10434000C8F800A0FFF77AF9064604E0FFF776F90F
:10435000801B02281FD828688007F7D42078000720
:1043600022D5864F87486169703771B1012101609C
:10437000FFF764F9064604E0FFF760F9801B0228A6
:1043800009D838688007F7D50EE0C0F800A0FFF71D
:1043900055F9064605E082E0FFF750F9801B022838
:1043A0007DD838688007F7D42078400768D5DFF8D3
:1043B000CCB100270BF13C0BDBF80000C0000BD4A4
:1043C000DBF8001041F08051CBF80010DBF8000062
:1043D000012700F0805000906B4E3068C00510D46B
:1043E000306840F480703060FFF728F9009005E0F5
:1043F000FFF724F90099401A022850D83068C00508
:10440000F6D55E4EA0686C3601280FD005283068BE
:1044100010D020F001003060306820F004003060DF
:10442000A068B8B1FFF70AF900900FE0306840F0DB
:104430000100F4E740F004003060F7E7FFF7FEF812
:104440000099411A41F28830814266D8306880076D
:10445000F4D50EE0FFF7F2F8009007E0FFF7EEF872
:104460000099411A41F28830814256D8306880075D
:10447000F4D42FB1DBF8001021F08051CBF80010FC
:10448000A069C8B33D49091D0968C1F3810102292A
:104490004AD00228504607D0C8F8600000E03CE04F
:1044A000FFF7CCF804463BE04746C8F86000FFF74A
:1044B000C5F8064605E000BFFFF7C0F8801B0228DC
:1044C0002BD828688001F7D4D4E907010843A16AF2
:1044D0002E4A490802EB0141626A41EA821108430F
:1044E00094F82C1040EA0161C9F8001001203866E8
:1044F000FFF7A4F8044606E03EE000BFFFF79EF891
:10450000001B022809D828688001F7D534E000BFD5
:10451000FFF794F8001B022802D90320BDE8F88FAA
:1045200028688001F4D427E00128F7D0D9F80000EA
:10453000E26900F4800191421CD1226A00F03F013F
:10454000914217D147F6C071626A0140B1EB821FF8
:1045500010D1A26A4FF0FF3300F4403103EB520256
:10456000B1EB024F06D194F82C1000F07060B0EB64
:10457000016F01D00120D1E70020CFE704380240CD
:1045800000004742800E4742007000400000FFFFDD
:104590007047704710B590F83C20012A22D00122C4
:1045A00080F83C20CA688C6822F4407222434C6830
:1045B00022F4806222430C6822F4006222430C69D8
:1045C00022F4805222434C6922F400522243C969EA
:1045D000002322F480420A4301684A6480F83C3098
:1045E000002010BD022010BD70B590F83C20012ABB
:1045F00032D0012480F83C40022280F83D2003683C
:104600005A689D6822F070060A6832435A60134B5C
:1046100002689A4214D0B2F1804F11D0104B9A42E6
:104620000ED0104B9A420BD00F4B9A4208D00F4B32
:104630009A4205D00E4B9A4202D00E4B9A4204D1B8
:10464000496825F080031943916080F83D400021BE
:1046500080F83C10084670BD022070BD000001408B
:104660000004004000080040000C0040000401402D
:10467000004001400018004010B5040003D094F839
:104680003D0010B107E0012010BD002084F83C007F
:10469000204600F01FF8022084F83D00211D20680C
:1046A00005F0F8F8012084F8460084F83E0084F80C
:1046B0003F0084F8400084F8410084F8420084F808
:1046C000430084F8440084F8450084F83D0000204D
:1046D00010BD000038B5054600681E49884238D133
:1046E0001D480021026842F00202026000681C4C72
:1046F00000F002000090194820604FF06060606098
:104700004020C4E902010001206140006061800096
:10471000A0614011E0614FF44030C4E90801204637
:10472000FEF7B8FD08B1FDF708FD6C620022052117
:104730002C20A563FFF720F82C20FFF70FF80022AC
:1047400005212E20FFF718F8BDE838402E20FFF78E
:1047500005B838BD000401404438024040640240BE
:104760007C19002090F83D10012901D001207047EC
:10477000022180F83D100168CA6842F00102CA6057
:1047800000681149884214D0B0F1804F11D00F4910
:1047900088420ED00E4988420BD00E49884208D07C
:1047A0000D49884205D00D49884202D00C49884203
:1047B00004D1816801F00701062903D0016841F0A6
:1047C000010101600020704700000140000400402A
:1047D00000080040000C004000040140004001407F
:1047E0000018004070B5044690F83C0000250128F0
:1047F00017D0012684F83C60022084F83D00206830
:10480000826822F0770222F47F4282600868502892
:1048100038D00DDC20284FD005DC90B3102811D102
:104820004AE0022070BD302846D040280AD13BE043
:1048300060282FD070280DD0B0F5805F03D0B0F580
:10484000005F12D0012584F83D60002084F83C0010
:10485000284670BDCB68D1E90121206805F000F938
:104860002068816841F0770109E0CB68D1E9012136
:10487000206805F0F5F82068816841F48041816086
:10488000E1E719E0CA684968206805F0BDF95021E0
:10489000206806E0CA684968206805F0C6F960210A
:1048A000206805F0E7F8CEE7CA684968206805F097
:1048B000ABF940212068F4E7226801461046F0E792
:1048C0007047704770B50446006801694FF00005F5
:1048D000C943890715D4C168C943890711D4E91EA2
:1048E000016101202077206880698007204602D07E
:1048F000FFF7E7FF04E000F0C3F8204600F056F9A8
:10490000257720680169C943490717D4C168C9439D
:10491000490713D46FF00401016102202077206859
:10492000806910F4407F204602D0FFF7CAFF04E000
:1049300000F0A6F8204600F039F9257720680169D3
:10494000C943090716D4C168C943090712D46FF0D7
:1049500008010161042020772068C0698007204693
:1049600002D0FFF7AEFF04E000F08AF8204600F026
:104970001DF9257720680169C943C90617D4C168A4
:10498000C943C90613D46FF01001016108202077D4
:104990002068C06910F4407F204602D0FFF791FFE5
:1049A00004E000F06DF8204600F000F9257720685B
:1049B0000169C943C90708D1C168C943C90704D1FE
:1049C000891E0161204600F03DFA20680169C94353
:1049D000090609D4C168C943090605D46FF08001EE
:1049E00001612046FFF7D4FD20680169C9434906EB
:1049F00009D4C168C943490605D46FF0400101617B
:104A0000204600F026FA20680169C94389060BD4C4
:104A1000C168C943890607D46FF0200101612046AF
:104A2000BDE87040FFF7B5BD70BD000010B586B0A1
:104A3000044614216846FBF7BBFD0E4920688842F6
:104A400015D10D480021026842F4807202600068AE
:104A500000F480700590202000900220CDE9010133
:104A60000320CDE9031069460448FEF7C7FC06B0F1
:104A700010BD000000040140303802400020024018
:104A8000704770B5044690F83C0000260D4601289A
:104A90000FD0012084F83C006AB1042A1DD0082AF6
:104AA0002FD00C2A3FD00126002084F83C0030464D
:104AB00070BD022070BD206804F0E4FF20688169A9
:104AC00041F0080181612068816921F00401816160
:104AD000206881692A69114311E0206805F002F815
:104AE0002068816941F4006181612068816921F455
:104AF00080618161206881692A6941EA02218161BE
:104B0000D2E7206805F024F82068C16941F0080167
:104B1000C1612068C16921F00401C1612068C169D7
:104B20002A69114311E0206805F046F82068C16940
:104B300041F40061C1612068C16921F48061C161F3
:104B40002068C1692A6941EA0221C161ACE710B558
:104B5000040003D094F83D0010B107E0012010BD1F
:104B6000002084F83C00204600F01EF8022084F863
:104B70003D00211D206804F08DFE012084F84600D0
:104B800084F83E0084F83F0084F8400084F8410037
:104B900084F8420084F8430084F8440084F8450017
:104BA00084F83D00002010BD70470000002101483E
:104BB00000F0E2B834190020704700002DE9F04100
:104BC00017460D0004464FF000060CD0042D11D0FE
:104BD000082D16D094F84100022819D094F841000D
:104BE000012818D07BE094F83E00022810D094F8F9
:104BF0003E00F5E794F83F00022809D094F83F0002
:104C0000EEE794F84000022802D094F84000E7E76D
:104C10000220BDE8F0810FB9002B60D14C494D4A0C
:104C2000DFF834C102204DB1042D18D0082D27D053
:104C300084F841000C2D44D0012687E084F83E0022
:104C4000606AC163606A39460264606AC0F84CC039
:104C50002268606A3432FEF787FB88BB21E084F863
:104C60003F00A06AC163A06A39460264A06AC0F826
:104C70004CC02268A06A3832FEF776FB00BB15E014
:104C800084F84000E06AC163E06A39460264E06A81
:104C9000C0F84CC02268E06A3C32FEF765FB78B988
:104CA00009E02068C16841F400711EE02068C16815
:104CB00041F4806119E02068C16841F4006114E0AA
:104CC0000DE0206BC163206B39460264206BC0F895
:104CD0004CC02268206B4032FEF746FB08B1012031
:104CE00097E72068C16841F48051C16001222946DC
:104CF000206804F033FE19492068194A884201D01F
:104D0000904203D1436C43F40043436420688842DB
:104D100013D0B0F1804F10D0124988420DD0124903
:104D200088420AD01149884207D0904205D01049E4
:104D3000884202D00F49884204D1816801F00701FE
:104D4000062903D0016841F001010160304660E7A7
:104D500077990008D59900080D9A000800000140D5
:104D6000000401400004004000080040000C004026
:104D7000004001400018004070B50D0004464FF09F
:104D8000000607D0042D0CD0082D11D00C2D16D004
:104D9000012648E02068C16821F40071C160606AA2
:104DA00013E02068C16821F48061C160A06A0CE052
:104DB0002068C16821F40061C160E06A05E02068F4
:104DC000C16821F48051C160206BFEF781F9002297
:104DD0002946206804F0C2FD184B41F211112068E9
:104DE0008A10984202D0164B984209D1036A0B42AE
:104DF00006D1036A134203D1436C23F40043436496
:104E00002068036A0B4206D1016A114203D101688E
:104E100021F00101016001203DB1042D08D0082DD1
:104E200009D084F84100304670BD84F83E00FAE7AE
:104E300084F83F00F7E784F84000F4E70000014001
:104E4000000401400068B0F1804F01D1FEF7FCBBC7
:104E500070477047704710B504460068406994F881
:104E60003D10C0F3C010212911D180B12068143049
:104E700050E8001F21F0800140E80012002AF5D11F
:104E8000606B08B1FEF7DBF8204605F0DBFA20681E
:104E9000406994F83E10C0F38010222911D180B1EE
:104EA0002068143050E8001F21F0400140E8001253
:104EB000002AF5D1A06B08B1FEF7C1F8204605F035
:104EC0009AFA002010BD7047F8B5016804460868DA
:104ED000CA684B6910F00F0F4FF000055AD003F06D
:104EE000010602F49077374365D0C10705D0D1059C
:104EF00003D5216C41F001012164410705D5D90793
:104F000003D0216C41F002012164810705D5D90746
:104F100003D0216C41F004012164010707D502F0A0
:104F20002001314303D0216C41F008012164216C40
:104F300000293BD0800604D5900602D5204605F016
:104F40008FFA20684069216CC0F3801001F00801DD
:104F5000014320462BD005F04EFA206840694006F8
:104F600021D52068143050E8001F21F0400140E8AE
:104F70000012002AF5D1A06BA8B16C490165A06BA5
:104F8000FEF7A6F8002811D0A06B016D01B0BDE8B6
:104F9000F040084783060ED593060CD52046BDE8A1
:104FA000F84005F05DBA2046FFF78DFFF8BDFFF72A
:104FB0008AFF2564F8BD266B2023012E79D1C60611
:104FC00077D5D60675D508684868009048694006C8
:104FD00040D5A16B086840680004000CEAD0A28D9F
:104FE0008242E7D9E085C869B0F5807F2DD020687E
:104FF0000C3050E8001F21F4807140E80012002AB4
:10500000F5D12068143050E8001F21F0010140E87C
:105010000012002AF5D12068143050E8001F21F05A
:10502000400140E80012002AF5D184F83E302563A3
:1050300020680C3050E8001F21F0100140E80012F9
:10504000002AF5D1A06BFDF7FAFFA08DE18D401A83
:1050500081B229E0A08DE18D401A81B2E08D002857
:10506000A8D00029A6D020680C3050E8002F22F4E8
:10507000907240E80026002EF5D12068143050E8E8
:10508000002F22F0010240E80026002EF5D184F81E
:105090003E30256320680C3050E8002F22F01002CB
:1050A00040E80023002BF5D12046FFF7D3FEF8BDE2
:1050B000FFE705062BD5150629D594F83D002128D4
:1050C000F5D1A068B0F5805F01D12069B0B1206A48
:1050D000411C2162216800784860E08C401E000479
:1050E000000CE084E3D12068C16821F08001C16038
:1050F0002068C16841F04001C160D8E7206A00889B
:10510000C0F308004860206A801C2062E5E7400682
:10511000CDD55006CBD5CA68204622F04002CA60E1
:1051200084F83D3000F0B5FAC1E7000001A30008A3
:1051300070B5040004D094F83D00002510B106E0DD
:10514000012070BD84F83C50204600F023F8242054
:1051500084F83D002068C16821F40051C1602046F8
:1051600005F0DEF92068016921F4904101612068B1
:10517000416921F02A0141612068C16841F4005170
:10518000C1602564202084F83D0084F83E000020A2
:1051900070BD00002DE9F04F87B004461421684629
:1051A000FBF706FAF248DFF8C4831038D4F800C0E1
:1051B000EF4B02210322DFF8BC938715002506156B
:1051C0004FF0080B4FF0206AC4453CD1D3F800C023
:1051D0004CF0804CC3F800C01B6803F0804305937B
:1051E000036843F010030360006800F010000590AE
:1051F000D0018DE82300CDE9032B69464846FEF730
:10520000FDF8DFF87883DC494046C8F80010C0E9B3
:1052100001A5C0E90356C8F81450C0E90657C8F8FC
:105220002050C8F82450FEF735F808B1FCF785FF88
:10523000C4F83880002205215220C8F83840FEF713
:105240009BFA522042E0DFF83883C44543D1D3F8BB
:1052500000C04CF0004CC3F800C01B6803F00043D2
:105260000593036843F0100303600068CDE9002153
:1052700000F01000CDE904B0CDE90252694648467D
:10528000FEF7BCF8DFF8F482BB4908F1600848314A
:105290004046C8F80010C0E901A5C0E90356C8F8A7
:1052A0001450C0E90657C8F82050C8F82450FDF73C
:1052B000F1FF08B1FCF741FFC4F838800022052156
:1052C0005320C8F83840FEF757FA5320FEF746FA45
:1052D00007B0BDE8F08FDFF8AC82DFF894E24FF062
:1052E00007090EF1040EC44541D1DEF800C04CF0B0
:1052F000100CCEF800C0DEF8003003F01003059368
:10530000036843F002030360006800F002000590A8
:10531000C0208DE82300CDE9032969469A48FEF7AD
:105320006DF8DFF85882994908F1C0084046C8F87E
:1053300000104FF00061C0E90115C0E90356C8F83C
:105340001450C0E90657C8F82050C8F82450FDF79B
:10535000A1FF08B1FCF7F1FEC4F838800022052156
:105360002520C8F83840FEF707FA2520AEE7DFF819
:105370002082C4453FD1D3F800C04CF4003CC3F8B0
:1053800000C01B6803F400330593036843F0010376
:105390000360006800F0010005900C208DE82300F8
:1053A000CDE9032969467B48FEF728F87249DFF802
:1053B000E88130314046C8F800104FF00061C0E984
:1053C0000115C0E90356C8F81450C0E90657C8F8DB
:1053D0002050C8F82450FDF75DFF08B1FCF7ADFE82
:1053E000C4F83880002205212620C8F83840FEF78E
:1053F000C3F926206AE7DFF8A481C4455BD1D3F85E
:1054000000C04CF4802CC3F800C01B6803F4802358
:105410000593036843F008030360006800F0080088
:1054200005904FF440708DE82300CDE903296946CB
:105430005B48FDF7E3FFDFF860814F4908F1600842
:1054400030394046C8F800104FF00061C0E901153E
:10545000C0E90356C8F81450C0E90657C8F82050F0
:10546000C8F82450FDF716FF08B1FCF766FE4A4F56
:105470004148C4F83880C0371830C8F83840386020
:105480004005786007F10801402081E861007D61F6
:10549000BD61FD613D6238467D62FDF7FBFE08B1EE
:1054A000FCF74BFE6763002205212720BC63FEF753
:1054B00063F927200AE73B4B9C457FF409AFDEF8F0
:1054C00000C04CF0200CCEF800C0DEF8003003F035
:1054D00020030593036843F040030360006800F075
:1054E000400005904FF484408DE82300CDE9032B64
:1054F00069462D48FDF782FF2449DFF8B080603906
:105500004046C8F80010C0E901A5C0E90356C8F834
:105510001450C0E90657C8F82050C8F82450FDF7C9
:10552000B9FE08B1FCF709FE204F1848C4F83880CE
:1055300060371830C8F83840E7E8020A402061C7F1
:105540001A4847F814596030BD61FD613D627D62C3
:10555000FDF7A0FE08B1FCF7F0FD6763002205210E
:105560004720BC63FEF708F94720AFE6007800400B
:10557000403802400010024058600240741B002076
:10558000007C00400010014000040240886402409A
:105590000044004000000240941C002000480040ED
:1055A000000C02400014014000180240B41D00200D
:1055B00090F83E30202B0ED159B152B190F83C30CA
:1055C000012B08D0012380F83C300023036305F051
:1055D0002DB80120704702207047704770470000C7
:1055E0002DE9F843044690F83D001F4616460D4647
:1055F00020284CD1C5B1BEB194F83C00012846D05A
:10560000012084F83C004FF00008C4F840802120BD
:1056100084F83D00FEF712F8A6848146E684A0686F
:10562000B0F5805F03D004E00120BDE8F883206975
:1056300028B12E465FF0000584F83C800EE000267D
:10564000FAE78021204605F03BF8A0B9AEB116F884
:10565000010B21684860E08C401EE084E08C4B46E2
:105660004FF0000200970028EBD14FF04001204698
:1056700005F026F830B10320D7E735F8020BC0F368
:105680000800E6E7202084F83D000020CDE7022056
:10569000CBE77047FEE70000674810B566494078E1
:1056A0008870084600784870C81CC91C407888700B
:1056B000084600784870C81C4178817001784170B4
:1056C000C01C4178817001784170C01C41788170A4
:1056D00001784170C01C4178817001784170C01C14
:1056E0004178817001784170C01C417881700178E7
:1056F0004170C01C4178817001784170C01C4178B4
:10570000817001784170C01C4178817001784170CE
:10571000C01C4178817001784170C01C4178817053
:1057200001784170C01C4178817001784170C01CC3
:105730004178817001784170C01C41788170017896
:105740004170C01C4178817001784170C01C417863
:105750008170017841705238407901286AD1002067
:10576000FCF75EFF344908700120FCF759FF32490D
:10577000C91C08700320FCF753FF2F49891D0870CE
:105780000220FCF74DFF2C49093108700620FCF778
:1057900047FF29490C3108700720FCF741FF2649D3
:1057A0000F3108700820FCF73BFF234912310870C5
:1057B0000920FCF735FF2049153108700A20FCF755
:1057C0002FFF1D49183108700B20FCF729FF1A49DB
:1057D0001B3108700C20FCF723FF17491E3108709D
:1057E0000D20FCF71DFF1449213108700E20FCF735
:1057F00017FF1149243108700F20FCF711FF0E49E3
:10580000273108700520FCF70BFF0B492A3108707F
:105810000420FCF705FF08492D3108700020FCF733
:1058200081FF0549303108700120FCF77BFF0249F8
:105830003331087010BD00005B01002070B53048A6
:105840000078012821D02F480078012821D02E4847
:105850000321002203782D48022B20D0012B2BD0CE
:10586000092B29D0082B33D0042B3DD05FF0000149
:1058700001EB41042318491C5A7002559A700629FD
:10588000F6DDBDE8704007F00FBC0022032108469A
:1058900002E0002203211046FCF7F8FCF1E70023A8
:1058A0005FF0070603EB43052C185B1C617046553F
:1058B000A270062BF6DDE4E75FF0000202EB420483
:1058C0002318521C597001559970062AF6DDD8E745
:1058D0005FF0000303EB43052C185B1C627041551D
:1058E000A170062BF6DDCCE75FF0000303EB430568
:1058F0002C185B1C62704255A170062BF6DDC0E7C8
:10590000300000204C00002059000020960A0020A2
:1059100010B52DED028BFCF73DFE434C04F8080F4B
:10592000FCF744FE6070FCF72FFEA070FCF738FE19
:10593000E0703E48007820713D48007860713D4835
:105940000078A0713C480078E0713C4800782072F3
:105950000320FCF731FE9FED3A8A20EE080ABDEEE7
:10596000C00A10EE100A60810220FCF725FE20EE2E
:10597000080ABDEEC00A10EE100AA0810120FCF753
:105980001BFE20EE080ABDEEC00A10EE100AE081F0
:105990000020FCF711FE20EE080ABDEEC00A10EE52
:1059A000100A208227480088608227480088A08249
:1059B00026480088E0822648008820832548017810
:1059C000A1764178E17680782077234823490078D2
:1059D0000978800140EA41102149097840EA011024
:1059E0002049097840EAC1001F49097840EA81004E
:1059F0001E49097840EA41001D490978084360774B
:105A00001C4890ED000ABDEEC00A10EE100AE083BB
:105A1000194890ED000ABDEEC00A10EE100A20846D
:105A2000BDEC028B10BD0000B81500206100002005
:105A3000590000201E0100205400002041000020D9
:105A40000000C84220010020220100202401002083
:105A5000260100204F0100206D0100205B01002085
:105A60005E01002064010020610100208B01002004
:105A70008E010020940100209801002038B50446D2
:105A80000068C068C00620D5A06B0068016821F0DE
:105A9000010101602068016840680090A06B006807
:105AA00040680A49C0F1420010F0FF00087002D0BF
:105AB000074800F029F8A16B422009684860A06BF4
:105AC0000068016841F00101016038BD200000203C
:105AD000C607002070B50B4C0D463E212170922167
