:020000040800F2
:10000000C057002029030008DB3700083D2C0008FA
:1000100069350008ED0800084D5A0008000000008E
:10002000000000000000000000000000690200085D
:10003000A10D000800000000C5020008753E000880
:100040004303000843030008430300084303000878
:100050004303000843030008430300084303000868
:100060004303000843030008430300084303000858
:10007000C10C0008430300084303000843030008C1
:100080004303000843030008430300084303000838
:10009000F108000843030008430300084303000875
:1000A0004303000843030008430300084303000818
:1000B000453F0008430300084303000843030008CA
:1000C00043030008430300084303000843030008F8
:1000D000430300089946000843030008B14600089E
:1000E00043030008430300084303000843030008D8
:1000F00043030008430300084303000843030008C8
:1001000043030008430300084303000843030008B7
:1001100043030008430300084303000843030008A7
:1001200043030008CD0C0008D90C00084303000865
:100130004303000843030008430300084303000887
:1001400043030008FD0800084303000843030008B8
:1001500043030008E50C0008F10C0008C94600083C
:100160004303000843030008430300084303000857
:100170004303000843030008430300080000000095
:10018000430300084303000800F002F800F05CF8A5
:100190000AA090E8000C82448344AAF10107DA45E2
:1001A00001D100F051F8AFF2090EBAE80F0013F0D8
:1001B000010F18BFFB1A43F001031847C085000068
:1001C000E08500000A444FF0000C10F8013B13F0EA
:1001D000070408BF10F8014B1D1108BF10F8015BA0
:1001E000641E05D010F8016B641E01F8016BF9D193
:1001F00013F0080F1EBF10F8014BAD1C0C1B09D1EA
:100200006D1E58BF01F801CBFAD505E014F8016B5B
:1002100001F8016B6D1EF9D59142D6D370470000ED
:100220000023002400250026103A28BF78C1FBD8FF
:10023000520728BF30C148BF0B6070471FB508F098
:1002400032F81FBD10B510BD00F0E4F91146FFF7FC
:10025000F5FF06F041F900F002FA03B4FFF7F2FFF0
:1002600003BC00F005FA00002C4B19680868B0E8E0
:10027000F04F80F30988BFF36F8F4FF0000080F3D9
:10028000118870470000000008480068006880F38B
:1002900008884FF0000080F3148862B661B6BFF39F
:1002A0004F8FBFF36F8F00DF00BF00BF08ED00E08E
:1002B000DFF80C00016841F470010160704700BF75
:1002C00088ED00E0EFF30980BFF36F8F134B1A68DE
:1002D0001EF0100F08BF20ED108A20E9F04F1060CB
:1002E00009B44FF0500080F31188BFF34F8FBFF374
:1002F0006F8F06F08DFE4FF0000080F3118809BC6F
:1003000019680868B0E8F04F1EF0100F08BFB0EC95
:10031000108A80F30988BFF36F8F7047680100204F
:10032000EFF30580704700000948804709480047FF
:10033000FEE7FEE7FEE7FEE7FEE7FEE7FEE7FEE795
:10034000FEE7FEE704480549054A064B70470000F2
:10035000353F000889010008C04B0020C05700202D
:10036000C0510020C051002053EA020C00F0698007
:100370002DE9F04B4FF00006002B1FBFB3FA83F5B9
:1003800003FA05F424FA05F65E4012BF1643B2FAEA
:1003900082F502FA05F4C5F120051EBF22FA05FC1C
:1003A00044EA0C04203556EA044C4FEA144418BFC2
:1003B000641C4FF000084FF00009904271EB030CF1
:1003C00039D3002919BFB1FA81F701FA07F6B0FA5B
:1003D00080F700FA07F6C7F120071EBF20FA07FCD6
:1003E00046EA0C062037B6FBF4FCA7EB0507103FE6
:1003F00007F01F0BCBF120060CFA0BFB2CFA06F6CC
:1004000044BFB3460026202FA4BF5E464FF0000B2A
:100410005BEA060C08BF4FF0010B19EB0B09ABFBB5
:10042000027C48EB0608C01B06FB02CC0BFB03CC8E
:1004300071EB0C01C1E70B46024641464846BDE858
:10044000F08B13B54FF000004FF00001AFF30080C8
:10045000BDE81C407047032A40F2308010F0030CC6
:1004600000F0158011F8013BBCF1020F624498BF07
:1004700011F801CB00F8013B38BF11F8013BA2F1A4
:10048000040298BF00F801CB38BF00F8013B11F01F
:10049000030300F02580083AC0F0088051F8043BBF
:1004A000083A51F804CBA0E80810F5E7121D5CBF2C
:1004B00051F8043B40F8043BAFF30080D20724BF5F
:1004C00011F8013B11F801CB48BF11F8012B24BFF3
:1004D00000F8013B00F801CB48BF00F8012B704742
:1004E00010B5203AC0F00B80B1E81850203AA0E8CF
:1004F0001850B1E81850A0E81850BFF4F5AF5FEA03
:10050000027C24BFB1E81850A0E8185044BF18C9B5
:1005100018C0BDE810405FEA827C24BF51F8043B5C
:1005200040F8043B08BF7047D20728BF31F8023BB0
:1005300048BF11F8012B28BF20F8023B48BF00F844
:10054000012B704702F0FF0343EA032242EA024212
:1005500000F037B84FF0000200B5134694469646B7
:10056000203922BFA0E80C50A0E80C50B1F12001C6
:10057000BFF4F7AF090728BFA0E80C5048BF0CC074
:100580005DF804EB890028BF40F8042B08BF7047D2
:1005900048BF20F8022B11F0804F18BF00F8012B44
:1005A000704770477047704710B500F02BF800682F
:1005B00010BD10B5044600F025F8046010BD4FF0E2
:1005C00000020429C0F0128010F0030C3FF4C4AF05
:1005D000CCF1040CBCF1020F18BF00F8012BA8BF2E
:1005E00020F8022BA1EB0C01FFF7B6BF5FEAC17C3C
:1005F00024BF00F8012B00F8012B48BF00F8012BA5
:100600007047000000487047604B0020004870476A
:10061000604B00207546FFF7F9FFAE4605006946BE
:10062000534620F00700854618B020B5FFF78AFE34
:10063000BDE820404FF000064FF000074FF00008E3
:100640004FF0000B21F00701AC46ACE8C009ACE864
:10065000C009ACE8C009ACE8C0098D46704710B5C8
:100660000446AFF300802046BDE81040FFF7F5BD1B
:1006700001491820ABBEFEE72600020070470000CB
:1006800000219FED100A104B06E000BF70EEC00A7B
:10069000491C09B2C0ED0F0AD0ED0F0A10EE902AE6
:1006A0009A42F3DA06E000BF70EE800A491E09B2F2
:1006B000C0ED0F0AF5EEC00AF1EE10FAF4D3418551
:1006C000704700000000B4430000B44310B500229E
:1006D00010211E2006F044FD0949C86000F02EF8E4
:1006E00000F014F8074800F029F9074800F026F94F
:1006F000044800F04BF9BDE81040034800F046B94B
:10070000AC0000202C0B0020540B002010B5094C2D
:100710002068416941F04001416121688223064A15
:10072000091DA06B01F05CF92068C16841F010015F
:10073000C16010BD040C0020D0010020144900202D
:1007400001F8060B41F8020C8870C87008714871F6
:100750008871C8710872487288728881C88108825D
:1007600048828882C88208834883087748778877D8
:10077000C8770884488481F8240006480068C16866
:1007800041F01001C16036220149024802F0E4B98B
:10079000540300207C0B00200B4A022313701B0221
:1007A0005360030A13725072080A90720020D172CB
:1007B000107350739073D0730346044803220249A8
:1007C000006806F033BD000080030020B800002060
:1007D0002DE9FC4701201B26374BCDE9006003F1D2
:1007E00054020221A2F50F7002F0EBFF002441F643
:1007F0004C57324DCDE9007440F6AC594B46304A67
:100800002146E86802F0EAFFCDE900742C4A42F67E
:10081000E06A53460C3A0021286902F0DFFF4FF4EA
:10082000FA68274ACDE9008443462432002105F5C1
:100830004E7002F0D3FF0220CDE9006005F524736D
:1008400003F154020146A2F5267002F0BAFFCDE989
:10085000007405F14C061A4A4B4618320021F06824
:1008600002F0BCFFCDE90074154A53460C3200215A
:10087000306902F0B3FFCDE90084114A43463032BB
:10088000002105F5637002F0A9FF02F091FA95EDE1
:100890000E0A85ED0D0A85ED0F0A6C852C85EC841A
:1008A00096ED0E0A86ED0D0A86ED0F0A74853485E5
:1008B000F484BDE8FC870000B8060020D0040020C6
:1008C000C885000810B5084C206902F0C3FFE06835
:1008D00002F0C0FF4C34206902F0BCFFE068BDE8C4
:1008E000104002F0B7BF0000D0040020FEE7000077
:1008F000014800F07EBC00002C0B0020014800F0F5
:1009000078BC0000540B002000B587B00091002196
:1009100002910391082104910649884201D10123E3
:1009200003E00549884203D10223694600F002FB37
:1009300007B000BD2C0B0020540B002010B504465E
:1009400010488AB0844202D10021084604E00E48D3
:10095000844215D10E210120059100210122CDE90B
:100960000612009101910291CDE903100E20CDE90C
:1009700008206946204600F041FB204600F068FE52
:100980000AB010BD2C0B0020540B002005498842F2
:1009900001D1022103E00449884202D1102100F074
:1009A000B7BA70472C0B0020540B0020A0F5007044
:1009B000013809D001280AD002280BD003280CD115
:1009C000064800BF00F056B90448E438FAE7034887
:1009D0009838F7E701484C38F4E770478404002062
:1009E000A0F50070013805D0012805D1034800BFEB
:1009F00000F040B90248FBE7704700001C050020EA
:100A0000D004002070B50F4E002400BF04EB44005A
:100A100000EB041006EB8005B5F92C0000EE100A7F
:100A20002869F8EEC00A95ED0C0A02F031FFBDEE20
:100A3000C00A641C042C10EE100AA5F84200E5DB85
:100A400070BD0000A003002030B40C4C01252570BF
:100A50006D026560050A25726072080AA072E17273
:100A6000100A20736273180AA073E37304482146C6
:100A70000023006830BC032206F0D8BB900300209E
:100A8000B80000202DE9F04F194A85B002AB07CA23
:100A9000DFF8609083E80700002427464FF0130832
:100AA000A9F5E47641F2883A42F6E06B601CCDE9A4
:100AB0000080C4EBC40000EB400104EB440000EBF9
:100AC000041009EB810306EB800005460022022199
:100AD00002F077FECDE900A75B4602AA0021286953
:100AE00002F07CFE641C042CE0DB05B0BDE8F08F56
:100AF000048600086805002010B5084C206902F043
:100B0000A9FEE06D02F0A6FED4F8A80002F0A2FE55
:100B1000D4F8F400BDE8104002F09CBEA003002011
:100B200070B503784FF0FF359FED4F0A4F4A41F6FD
:100B30002C2440F2DC51DFED4E0A022B04D0012BB5
:100B400002D0052B5AD057E0C38BA34206D9068C9E
:100B50008E4203D2C18C491EC18458E08B420CD214
:100B6000018CA14209D9C18C491CC18459E0641A85
:100B7000C484048D641C048501E090F82410B0F94D
:100B800026408C42F3DA04E00C44C484048D641ED5
:100B90000485B0F92640002CF6DB01EE103AB0F9DE
:100BA0002630F8EE411A81EE801A00EE101AF8EEA7
:100BB000401A21EE201A81EE210A01EE103AF8EED9
:100BC000C11A01EE101AB8EE412A81EE821A01EE26
:100BD000200A01E030EE600A10EE101A9142F9DAB4
:100BE00002E000BF30EE200AB5EEC00AF1EE10FAC6
:100BF000F8D300BF80ED0E0A002070BDC38BA34266
:100C000007D9068C8E4204D2018D491E01852846E3
:100C100070BD8B4207D2018CA14204D9018D491CC1
:100C20000185012070BD01EE103A90F82410F8EE15
:100C3000411A81EE801A00EE101AF8EE401A21EEE9
:100C4000201A81EE210A01E030EE600A10EE101A3F
:100C50009142F9DA02E000BF30EE200AB5EEC00A98
:100C6000F1EE10FAF8D3C5E700F8FF450000B443F1
:100C70000000B44310B402780123022A03D0012AF1
:100C800001D0052A1AD14269521C426190F84840AD
:100C9000012C10D00A8852BAC28314B9028480F899
:100CA00048304A8852BA0283898849BA418382858A
:100CB00010BCFFF735BFC28B0284EBE710BC704756
:100CC000014800F053BD0000080D0020014800F06D
:100CD0004DBD0000680D0020014800F047BD000038
:100CE000480C0020014800F041BD0000C80D002064
:100CF000014800F03BBD0000A80C0020016818234B
:100D0000CAB2103AB2FBF3F2054B6FF30901032AA2
:100D10009B5CC36500D9091D8165084670470000CA
:100D20002C86000810B5014600208B698A6A4FF0B6
:100D3000C07453B1B3F5005F15D072B1012A0CD065
:100D4000022A0AD0032A09D104E01AB1012A06D0E6
:100D5000022A03D1C96AC90100D5012010BDC96AA0
:100D6000A142FAD010BD002AF7D0012AF2D0022AFF
:100D7000F3D0032AF3D010BD30B50468256825F4FC
:100D800080252560046863608368402B036803D076
:100D900099600068C26030BD9A600068C16030BD73
:100DA000704772B6FEE70000014880787047000087
:100DB000C80000200148C07870470000C80000202B
:100DC0000148407870470000C800002010B558B1B5
:100DD000084C491E0BD310F8013B5340DBB234F8EA
:100DE000133083EA1222F4E74FF6FF7010BD10466D
:100DF00010BD0000BA83000810B5054C04E000BF28
:100E000010F8013B5340E25C491EF9D2104610BD78
:100E1000BA820008324910280A7802EB420303EB39
:100E2000C20201EB420158D2DFE800F0080D1217B0
:100E30001C21262B30353A3F44494E5391F844004B
:100E400000F00100704791F84400C0F34000704783
:100E500091F84400C0F38000704791F84400C0F35B
:100E6000C000704791F84400C0F30010704791F83B
:100E70004400C0F34010704791F84400C0F3801064
:100E8000704791F84400C0F3C0107047B1F84400B7
:100E9000C0F300207047B1F84400C0F34020704711
:100EA000B1F84400C0F380207047B1F84400C0F3AB
:100EB000C0207047B1F84400C0F300307047B1F86B
:100EC0004400C0F340307047B1F84400C0F38030B4
:100ED0007047B1F84400C00B704700207047000015
:100EE000F802002009490A7802EB420303EBC20230
:100EF00001EB420118B1012804D00020704791F89D
:100F00004200704791F8430070470000F80200204B
:100F100090F82020012A07D0022A05D0416A41F426
:100F20008021416201207047006842690A434261A2
:100F300000207047F0B590F820500468A468012D97
:100F400005D0022D03D0416A41F4802153E014F012
:100F5000406F01D1E5004BD5C4F30164022C03D9E5
:100F6000416A41F4000146E00125A5401D608D68FD
:100F70004FF4C0739DB1CE6835434E6845EAC6054F
:100F8000066803EB0417F5514FF4C275076805EBCB
:100F900004150E697E51097D012905D009E00E88EE
:100FA000CD6845EA4655EBE701684E5946F4807630
:100FB0004E511179D2F805504FF4C67641EA052515
:100FC000016806EB04168D511178D2F801204FF418
:100FD000C47541EA0221026805EB0415515100680D
:100FE00003EB0411425842F0010242500020F0BDD0
:100FF000416A41F4001141620120F0BD10B590F842
:101000002020012A07D0022A05D0416A41F480211C
:101010004162012010BD3B48D0F8002242F001029D
:10102000C0F80022D0F8002222F47C52C0F800223E
:10103000D0F800224B6A42EA0322C0F800220A7D5F
:1010400002F01F0301229A40D0F81C329343C0F8EB
:101050001C32CB69B3B9D0F80C329343C0F80C32D0
:101060008C894B6864F31F434C6900EBC404C4F8DB
:1010700040320C890B6864F31F434C6900EBC404D5
:10108000C4F84432CB69012B16D1D0F80C3213438B
:10109000C0F80C320C884B6864F31F434C6900EBBA
:1010A000C404C4F840320C89CB6864F31F434C6914
:1010B00000EBC404C4F844328B69002BD0F804322E
:1010C0000ED01343C0F804320B69002BD0F8143251
:1010D00008D01343C0F81432096A012904D008E08B
:1010E0009343EFE79343F5E7D0F81C121143C0F8A0
:1010F0001C12D0F8001221F00101C0F800120020EB
:1011000010BD000000640040704730B590F82040EA
:10111000012C05D0022C03D0416A41F480215DE00E
:101120000468002955D02469A40754D04FF4D8741A
:10113000056804EB01142D5915F004059560056848
:101140002D594ED0ED08556005682C5904F0020465
:10115000D4604FF4DA74056804EB01142D5905F0DE
:101160000F05156105682D59C5F3072595610568BB
:101170002C59240C54614FF4DC72046802EB011208
:10118000A4581C700468A458240A5C700468A4580D
:10119000240C9C700468A258120EDA704FF4DE72B0
:1011A000046802EB0112A4581C710468A458240AB4
:1011B0005C710468A458240C9C710468A258120E37
:1011C000DA71006881B1016941F0200101610020FC
:1011D00030BDE468A8E7416A41F400114162012092
:1011E00030BD6D0D1560AFE7C16841F02001C160F1
:1011F000EDE72DE9F05F0546006800244669D0F868
:1012000004908768D0F80CB0D0F810A0D0F81880FF
:10121000F10748D0F90714D001218160B80703D540
:10122000284600F042FA0CE0780702D54FF400643B
:1012300007E0380702D54FF4805402E0284600F05A
:1012400033FAF80516D529684FF480708860B80520
:1012500003D5284600F02BFA0CE0780502D544F4BB
:10126000005407E0380502D544F4804402E02846E3
:1012700000F01CFAF80316D529684FF48030886016
:10128000B80303D5284600F014FA0CE0780302D521
:1012900044F4004407E0380302D544F4803402E00B
:1012A000284600F005FA300707D55FEACB6004D581
:1012B0002968102044F40074C86070074FF00807D4
:1012C00007D55FEA0B7004D52868C760284600F090
:1012D00099F9B00706D52868C068800702D028466B
:1012E00000F092F9700607D55FEACA6004D5296854
:1012F000102044F480640861B00607D55FEA0A70E4
:1013000004D528680761284600F08EF9F00606D556
:1013100028680069800702D0284600F087F9B003EA
:1013200008D55FEAC96005D52968102048602846BD
:1013300000F08CF9F00307D55FEA097004D528683E
:101340004760284600F0B6F9300446D55FEA497098
:1013500040D5F00504D55FEAC87001D044F001041F
:10136000B00504D55FEA887001D544F00204700529
:1013700004D55FEA487001D544F00404300529D54E
:1013800018F0700F26D008F07000402815D006DC49
:10139000102809D020280AD0302816D10AE0502879
:1013A0000ED0602811D10EE044F008040DE044F0A6
:1013B00010040AE044F0200407E044F0400404E094
:1013C00044F0800401E044F480742868816921F0CD
:1013D00070018161296804204860002C05D0686A8A
:1013E000204368622846FFF78FFEBDE8F09F70B586
:1013F000040003D094F8200010B104E0012070BD77
:10140000204600F081F82068016841F00101016088
:1014100000F02EFC0546052604E000F029FC401BE8
:101420000A2811D820684068C007F6D020680168F3
:1014300021F00201016000F01BFC05460BE000F00A
:1014400017FC401B0A2806D9606A40F4003060622D
:1014500084F82060D2E7206840688007EFD4207EBF
:101460000128206801683DD021F080010160607E84
:1014700001282068016838D021F040010160A07E79
:1014800001282068016833D021F020010160E07E4E
:101490000128206801682ED041F010010160207FF2
:1014A00001282068016829D021F008010160607FCF
:1014B00001282068016824D021F004010160D4E9EA
:1014C00002010843D4E90412114308436168491E2C
:1014D00008432168C86100206062012084F8200070
:1014E000002070BD41F08001C0E741F04001C5E738
:1014F00041F02001CAE721F01001CFE741F00801D7
:10150000D4E741F00401D9E7F0B587B004461421CF
:101510006846FFF71FF8364B3648DFF8D0E0196809
:10152000D4F800C0334A03250226092710300024CE
:10153000491CF44522D11960012907D1016841F005
:1015400000710160006800F000700590106840F0C4
:10155000080010601068CDE9005600F00800CDE9E1
:10156000047069462448CDE9024500F083FA002260
:101570000521142000F01AFC142032E0DFF87CE092
:10158000F44530D1D0F800C04CF0806CC0F800C0F9
:10159000D0F800C001290CF0806CCDF814C019609F
:1015A00007D1016841F000710160006800F000702F
:1015B0000590106840F002001060106802AB00F067
:1015C000020005906020CDE9000683E8B00069467E
:1015D0000B4800F04FFA00220521412000F0E6FB05
:1015E000412000F0D5FB07B0F0BD000000640040D2
:1015F0005401002030380240000C024000680040D6
:10160000000402407047000000B589B007AB6A468D
:1016100000210448FFF779FD07A90098FFF7C6F9F4
:1016200009B000BD2C0B00207047000000B589B048
:1016300007AB6A4601210448FFF767FD07A9009838
:10164000FFF7CEF909B000BD540B00207047000031
:1016500070B5044690F82000012804D0606A40F478
:101660000020606218E0022084F8200020680168F1
:1016700021F00101016000F0FBFA05460EE000BF19
:1016800000F0F6FA401B0A2808D9606A40F40030DE
:101690006062052084F82000012070BD2068406849
:1016A000C007EDD1606270BD7047704770477047EA
:1016B0007047704770472DE9F0410446876D00F090
:1016C000D7FA064694F835000025022806D0802077
:1016D000606584F834500120BDE8F081206801681D
:1016E00021F0160101602068416921F0800141610B
:1016F000206C08B9A06C20B12068016821F00801B5
:1017000001602068016821F0010101600CE000F037
:10171000AFFA801B052807D920206065032084F8D4
:10172000350084F83450D7E720680068C007EED150
:1017300094F85C103F208840B860012084F83500A0
:1017400084F834500020C7E790F83510022903D000
:101750008021416501207047052180F8351000681F
:10176000016821F001010160002070472DE9F84374
:1017700004464FF00009CDF8009063484FF416512D
:10178000A56D0068B0FBF1F72E6894F85C10082096
:1017900000FA01F131420FD021680A6852070BD5D7
:1017A0000A6822F004020A6094F85C108840A8607D
:1017B000606D40F00100606594F85C104FF0010826
:1017C00008FA01F0304208D021684969090604D5B9
:1017D000A860606D40F00200606594F85C10042021
:1017E0008840304208D021680968890704D5A8607C
:1017F000606D40F00400606594F85C101020884033
:10180000304218D021680968090714D5A8602068FB
:101810000168490304D50068000308D5A16C07E0FE
:101820000168C90503D4016821F008010160216C39
:1018300009B12046884794F85C1020208840304247
:1018400031D021680968C9062DD5A86094F8350003
:1018500005282068016806D0490347D500680003C1
:101860001DD4616C1CE021F0160101602068416903
:1018700021F080014161206C08B9A06C20B1206882
:10188000016821F00801016094F85C103F20884055
:10189000A86084F8358084F83490216D1FE0E16BF6
:1018A00009B120468847606D00282BD0606DC007C5
:1018B00014D0052084F835002068016821F001016A
:1018C00001600098401C0090B84203D8206800686E
:1018D000C007F6D184F8358084F83490E16C002993
:1018E00010D001B02046BDE8F04308470168C905A3
:1018F000D5D4016821F01001016084F8358084F8A6
:101900003490CCE7BDE8F883640100202DE9F04174
:10191000044600F0ADF906465CB1022084F83500BB
:10192000002584F834502068016821F0010101602D
:101930000DE00120BDE8F08100F09AF9801B052838
:1019400005D920206065032084F83500F2E720687F
:101950000068C007F0D12268116820480140D4E92E
:1019600001031843D4E9033633431843636918432A
:10197000A3691843E3691843236A18430843616A5B
:10198000042903D1D4E90B131943084310602068DC
:101990004069666A20F0070130460E43012704289B
:1019A0000CD1A06A0643E06A40B12046FFF7BAF9BD
:1019B00020B14020606584F83570BAE72068466140
:1019C0002046FFF79BF994F85C203F21914081600D
:1019D000656584F835700020ACE700003F8010F0AA
:1019E0002DE9F0410446866D90F834000025012869
:1019F0000DD0012084F8340094F835700020012FB8
:101A000007D084F8340002252846BDE8F081022082
:101A1000FBE7022784F8357060652046FFF7ACF9D4
:101A200094F85C103F208840B0602068016841F065
:101A300016010160206C20B12068016841F00801A6
:101A400001602068016841F001010160DCE70000ED
:101A500070B5044600F00CF90546601C02D004483D
:101A60000078044400F004F9401BA042FAD370BD92
:101A7000580100202DE9F84FDFF8BCA10022012514
:101A800003264FF00F090AF1040BAAF1040E00BF60
:101A90000B6805FA02F42340A34270D10F7907F0D6
:101AA0000307012F01D0022F16D187684FEA4208A1
:101AB00006FA08FC27EA0C07D1F80CC00CFA08FC5F
:101AC0004CEA070CC0F808C04768A7430C79C4F378
:101AD000001494403C4344600C79E443A4070AD0CA
:101AE000C4684FEA420C06FA0CF7BC438F6807FA49
:101AF0000CF72743C7600C7904F00304022C12D1C1
:101B0000D40800EB840CDCF820405707FF0E09FADC
:101B100007F824EA0804D1F8108008FA07F848EA20
:101B20000408CCF8208004684FEA420C06FA0CF74F
:101B3000BC430F7907F0030707FA0CF72743076048
:101B40004C6814F4403F70D03C4C276847F4804701
:101B50002760246822F0030704F480440094384C82
:101B600007EB040CDCF8084897074FEA177809FAE6
:101B700008F7BC43334FB84202D1002724E054E0B9
:101B8000314FB84201D101271EE0304FB84201D198
:101B9000022719E02E4FB84201D1032714E02D4F40
:101BA000B84201D104270FE02B4FB84201D10527DD
:101BB0000AE02A4FB84201D1062705E0284FB84273
:101BC00001D1072700E0082707FA08F72743CCF8D8
:101BD0000878DAF800405746D1F804C09C435FEA21
:101BE000CC2C00D51C433C60DBF800405F46D1F8AC
:101BF00004C09C435FEA8C2C00D51C433C60DEF89B
:101C000000407746D1F804C09C435FEA8C3C00D585
:101C10001C433C60084F083F3C68D1F804C09C431B
:101C20005FEACC3C00D51C433C60521C102AFFF4F8
:101C30002FAFBDE8F88F0000083C01404438024057
:101C40000030014000000240000402400008024051
:101C5000000C024000100240001402400018024034
:101C6000001C02400AB1816170470904FBE70000D3
:101C700001488068704700005801002002488168D0
:101C80000278114481607047580100200B4810B55C
:101C9000016841F400710160016841F480610160F4
:101CA000016841F480710160032000F09FF800207A
:101CB00000F006F800F050F8002010BD003C024093
:101CC00030B50546204887B00024016841F0010185
:101CD0000160006806A900F00100009001A800F072
:101CE00031F90498B0B100F04DF9400017494FF0B8
:101CF0008042B0FBF1F11648491E026040F2E73223
:101D0000C0E90324C0E90114846100F045FB04002C
:101D100003D015E000F036F9E8E70D4800F06AFB63
:101D200004000DD11C2000F033F8102D07D2002242
:101D300029461C2000F03AF80648056000E001241E
:101D400007B0204630BD00004038024040420F003E
:101D5000280E00205C0100200C4882B0016841F48C
:101D600080410160006800F4804000900748001F37
:101D7000016841F0805101600068002200F080504D
:101D800000900F21901E02B000F010B844380240BD
:101D9000002809DB00F01F0201219140400980006A
:101DA00000F1E020C0F8001170470000F0B40E4BC5
:101DB0001B680C46C3F30223C3F10705042D00D9A9
:101DC0000425191D072901D2002300E0DB1E01268E
:101DD00006FA05F1491E214099409E40761E1640A4
:101DE0003143F0BC03F07DBE0CED00E0064900F08D
:101DF000070208684FF6FF03184040EA0220034A32
:101E000010430860704700000CED00E00000FA0588
:101E10002DE9F0470E46050065D0DFF81481D8F8AB
:101E20000000F7B200F00700B04207D288F8007057
:101E3000D8F8000000F00700B04254D128683D4CAB
:101E4000810712D5400703D5206840F4E050206098
:101E50002878000703D5206840F46040206020689F
:101E6000A96820F0F000084320602878C0072DD032
:101E7000304968680839012812D0022813D0032895
:101E800011D00968890700292DDA216821F00301A2
:101E900001432160FFF7ECFE814641F2883A0EE0F3
:101EA00009688903EFE709688901ECE7FFF7E0FEBD
:101EB000A0EB0901514502D90320BDE8F087206855
:101EC000696800F00C00B0EB810FEFD1D8F800107A
:101ED000404601F00701B14207D90770006800F0E1
:101EE0000700B04201D00120E7E72878400705D578
:101EF0002068E96820F4E050084320602878000753
:101F000006D52068296920F4604040EAC1002060BD
:101F100000F058F82168084AC1F30311515CC84029
:101F20000649086006480068FFF7CAFE0020C4E7BB
:101F3000003C02400838024034860008640100205A
:101F40005C0100200F2202600C4A136803F00303B7
:101F50004360136803F0F0038360136803F4E053F5
:101F6000C36012684FF4E05303EAD20202610448EE
:101F7000006800F007000860704700000838024061
:101F8000003C02400448054900680968044AC1F35E
:101F90008221515CC840704764010020083802402B
:101FA000448600080448054900680968044AC1F3EA
:101FB0004231515CC840704764010020083802403B
:101FC00044860008154810B5006810F00C0214484B
:101FD00013D01449042A0FD0082A0ED10F4C241F05
:101FE0002268236802F03F025B0207D52068C0F335
:101FF0008810A0FB010106E0084610BD2168C1F36E
:102000008811A1FB00010023FEF7AEF92168C1F39E
:102010000141491C4900B0FBF1F010BD08380240F5
:102020000024F400001BB7002DE9F84F04006ED027
:102030002078DFF84C93C007A9F104054AD009F1D4
:1020400004000168C1F38101012908D00068C0F3D0
:10205000810002280AD1D9F80000400206D528687C
:10206000800337D560680028E1D033E06068B0F5C0
:10207000803F10D0B0F5A02F286810D020F4803019
:102080002860286820F4802028606068A8B1FFF7E5
:10209000EFFD06460DE0286840F48030F4E740F498
:1020A00080202860F7E700BFFFF7E2FD801B64286F
:1020B00073D828688003F7D50CE0FFF7D9FD0646F2
:1020C00005E000BFFFF7D4FD801B6428F0D8286826
:1020D0008003F7D42078DFF8AC8280074FF0000A45
:1020E0003ED5A748001D016811F00C0F08D000680C
:1020F000C0F3810002280BD1D9F80000400207D4B8
:102100002868800716D5E068012800D112E033E185
:10211000E068B8B10120C8F80000FFF7A9FD064645
:1021200005E000BFFFF7A4FD801B0228C0D8286887
:102130008007F7D52868216920F0F80040EAC1003F
:1021400028600DE0C8F800A0FFF792FD064604E005
:10215000FFF78EFD801B02281FD828688007F7D460
:102160002078000722D5864F87486169703771B1A2
:1021700001210160FFF77CFD064604E0FFF778FDD2
:10218000801B022809D838688007F7D50EE0C0F810
:1021900000A0FFF76DFD064605E082E0FFF768FD51
:1021A000801B02287DD838688007F7D42078400744
:1021B00068D5DFF8CCB100270BF13C0BDBF8000051
:1021C000C0000BD4DBF8001041F08051CBF80010B8
:1021D000DBF80000012700F0805000906B4E306863
:1021E000C00510D4306840F480703060FFF740FDC7
:1021F000009005E0FFF73CFD0099401A022850D8F6
:102200003068C005F6D55E4EA0686C3601280FD048
:102210000528306810D020F001003060306820F0D0
:1022200004003060A068B8B1FFF722FD00900FE015
:10223000306840F00100F4E740F004003060F7E758
:10224000FFF716FD0099411A41F28830814266D8A5
:1022500030688007F4D50EE0FFF70AFD009007E034
:10226000FFF706FD0099411A41F28830814256D8A5
:1022700030688007F4D42FB1DBF8001021F08051D2
:10228000CBF80010A069C8B33D49091D0968C1F326
:10229000810102294AD00228504607D0C8F86000C0
:1022A00000E03CE0FFF7E4FC04463BE04746C8F8AA
:1022B0006000FFF7DDFC064605E000BFFFF7D8FC35
:1022C000801B02282BD828688001F7D4D4E90701A5
:1022D0000843A16A2E4A490802EB0141626A41EAB9
:1022E0008211084394F82C1040EA0161C9F80010EB
:1022F00001203866FFF7BCFC044606E03EE000BF64
:10230000FFF7B6FC001B022809D828688001F7D522
:1023100034E000BFFFF7ACFC001B022802D9032009
:10232000BDE8F88F28688001F4D427E00128F7D0B1
:10233000D9F80000E26900F4800191421CD1226AC0
:1023400000F03F01914217D147F6C071626A014027
:10235000B1EB821F10D1A26A4FF0FF3300F440317D
:1023600003EB5202B1EB024F06D194F82C1000F0AF
:102370007060B0EB016F01D00120D1E70020CFE702
:102380000438024000004742800E4742007000407F
:102390000000FFFF7047704710B5040003D094F8A9
:1023A0003D0010B107E0012010BD002084F83C0082
:1023B000204600F01EF8022084F83D00211D206810
:1023C00001F0C6FD012084F8460084F83E0084F840
:1023D0003F0084F8400084F8410084F8420084F80B
:1023E000430084F8440084F8450084F83D00002050
:1023F00010BD704790F83D10012901D001207047B1
:10240000022180F83D100168CA6842F00102CA60EA
:1024100000681149884214D0B0F1804F11D00F49A3
:1024200088420ED00E4988420BD00E49884208D00F
:102430000D49884205D00D49884202D00C49884296
:1024400004D1816801F00701062903D0016841F039
:1024500001010160002070470000014000040040BD
:1024600000080040000C0040000401400040014012
:1024700000180040704770B50446006801694FF0CD
:102480000005C943890715D4C168C943890711D418
:10249000E91E0161012020772068806980072046BD
:1024A00002D0FFF7E7FF04E000F098F8204600F0C4
:1024B00096F8257720680169C943490717D4C16890
:1024C000C943490713D46FF004010161022020774A
:1024D0002068806910F4407F204602D0FFF7CAFFD1
:1024E00004E000F07BF8204600F079F825772068BA
:1024F0000169C943090716D4C168C943090712D441
:102500006FF008010161042020772068C06980070E
:10251000204602D0FFF7AEFF04E000F05FF820464F
:1025200000F05DF8257720680169C943C90617D412
:10253000C168C943C90613D46FF0100101610820B6
:1025400020772068C06910F4407F204602D0FFF752
:1025500091FF04E000F042F8204600F040F82577B3
:1025600020680169C943C90708D1C168C943C907BF
:1025700004D1891E0161204600F032F8206801690B
:10258000C943090609D4C168C943090605D46FF0D7
:10259000800101612046FFF7FDFE20680169C94303
:1025A000490609D4C168C943490605D46FF0400102
:1025B0000161204600F01BF820680169C9438906C3
:1025C0000BD4C168C943890607D46FF020010161AB
:1025D0002046BDE87040FFF7DEBE70BD7047704713
:1025E0000068B0F1804F01D1FFF748BB70477047DA
:1025F00070477047F8B5016804460868CA684B69B7
:1026000010F00F0F4FF000055AD003F0010602F44E
:102610009077374365D0C10705D0D10503D5216C2C
:1026200041F001012164410705D5D90703D0216C90
:1026300041F002012164810705D5D90703D0216C3F
:1026400041F004012164010707D502F02001314364
:1026500003D0216C41F008012164216C00293BD09A
:10266000800604D5900602D5204601F0A9FE206818
:102670004069216CC0F3801001F00801014320463D
:102680002BD001F068FE20684069400621D5206803
:10269000143050E8001F21F0400140E80012002AE9
:1026A000F5D1A06BA8B16C490165A06BFFF74CF8A0
:1026B000002811D0A06B016D01B0BDE8F0400847C3
:1026C00083060ED593060CD52046BDE8F84001F0F0
:1026D00077BE2046FFF78DFFF8BDFFF78AFF256420
:1026E000F8BD266B2023012E79D1C60677D5D606F4
:1026F00075D50868486800904869400640D5A16BC8
:10270000086840680004000CEAD0A28D8242E7D934
:10271000E085C869B0F5807F2DD020680C3050E886
:10272000001F21F4807140E80012002AF5D12068D2
:10273000143050E8001F21F0010140E80012002A87
:10274000F5D12068143050E8001F21F0400140E826
:102750000012002AF5D184F83E30256320680C3041
:1027600050E8001F21F0100140E80012002AF5D1C6
:10277000A06BFEF7A0FFA08DE18D401A81B229E089
:10278000A08DE18D401A81B2E08D0028A8D00029EB
:10279000A6D020680C3050E8002F22F4907240E858
:1027A0000026002EF5D12068143050E8002F22F0CA
:1027B000010240E80026002EF5D184F83E30256362
:1027C00020680C3050E8002F22F0100240E800236F
:1027D000002BF5D12046FFF70BFFF8BDFFE70506FC
:1027E0002BD5150629D594F83D002128F5D1A068F0
:1027F000B0F5805F01D12069B0B1206A411C21622F
:10280000216800784860E08C401E0004000CE084E1
:10281000E3D12068C16821F08001C1602068C168EF
:1028200041F04001C160D8E7206A0088C0F3080089
:102830004860206A801C2062E5E74006CDD550063E
:10284000CBD5CA68204622F04002CA6084F83D30E9
:1028500000F0F3F9C1E700006142000870B5040020
:1028600004D094F83D00002510B106E0012070BDB1
:1028700084F83C50204600F023F8242084F83D00E2
:102880002068C16821F40051C160204601F0F8FDC4
:102890002068016921F4904101612068416921F0BB
:1028A0002A0141612068C16841F40051C16025647A
:1028B000202084F83D0084F83E00002070BD000018
:1028C0002DE9F04F87B0044614216846FDF742FE1B
:1028D0009549DFF850821439D4F800C0924A022694
:1028E0000320072300250F154FF4807A4FF0006B6B
:1028F000C44567D1D2F800C04CF0100CC2F800C03B
:10290000126802F0100205920A6842F002020A60A0
:102910000A6802F0020205920A6842F001020A60A7
:102920000968804601F0010105918021CDE900167A
:102930000DF1080C99468CE8200369467B48FFF7A7
:1029400099F83002CDE900060DF1080C69468CE8D3
:1029500020037748FFF78EF8774E7648B946306007
:10296000C6E901B5C6E903577561C6E9065AFF0114
:10297000C6E90875D8463046FEF7C8FF08B1FEF72D
:1029800010FAA663B4636C4E6A4860367830E6E8A5
:1029900002084020A6E82102674846F81459603032
:1029A000B561C6E907577562FEF7B0FF08B1FEF7DB
:1029B000F8F96663002205212520B463FFF7F6F9D4
:1029C000252053E0DFF87481C44554D1564A121FC4
:1029D000D2F800C04CF4802CC2F800C0126802F497
:1029E000802205920A6842F004020A600A6802F036
:1029F000040205920A6842F008020A6009688146EA
:102A000001F0080105914FF40061CDE90016CDE910
:102A100002599846049369464948FFF72BF8CDF8C8
:102A200000A0CDE90165CDE9039869464548FFF767
:102A300021F8414E4448C0363060C6E901B5C6E9C8
:102A400003577561C6E9065A4FF40030C6E9080518
:102A50003046FEF75BFF08B1FEF7A3F9A66300223C
:102A600005212720B463FFF7A1F92720FFF790F98C
:102A700007B0BDE8F08F354B9C45F9D1136843F0A2
:102A800020031360126802F0200205920A6842F0E7
:102A900040020A600968CDE9025001F04001059149
:102AA0004FF48441CDE90016082004906946284877
:102AB000FEF7E0FF1F48274E18384FF020683060BF
:102AC000C6E90185C6E9035775614FF48039B561E0
:102AD000C6E9075930467562FEF718FF08B1FEF7E0
:102AE00060F9A663B4631B4E124860366030E6E8B6
:102AF00002084020A1C6174846F814596030B56155
:102B0000C6E907597562FEF701FF08B1FEF749F9FA
:102B10006663002205214720B463FFF747F9472089
:102B2000A4E70000001001404438024000040240C5
:102B30000000024040640240480C00200048004071
:102B400000080240000C02402860024000140140CE
:102B500000180240680D002090F83E30202B0ED166
:102B600059B152B190F83C30012B08D0012380F8C4
:102B70003C300023036301F009BD012070470220AF
:102B800070477047704700002DE9F843044690F8FD
:102B90003D001F4616460D4620284CD1C5B1BEB19A
:102BA00094F83C00012846D0012084F83C004FF006
:102BB0000008C4F84080212084F83D00FFF758F851
:102BC000A6848146E684A068B0F5805F03D004E067
:102BD0000120BDE8F883206928B12E465FF000058A
:102BE00084F83C800EE00026FAE78021204601F0C0
:102BF00017FDA0B9AEB116F8010B21684860E08C52
:102C0000401EE084E08C4B464FF000020097002805
:102C1000EBD14FF04001204601F002FD30B103201E
:102C2000D7E735F8020BC0F30800E6E7202084F868
:102C30003D000020CDE70220CBE77047FEE7000013
:102C400030B542F210752A460A21084800F08EFC81
:102C5000044606482A460A214C3000F087FC012C25
:102C600001D1012800D0002030BD0000D004002098
:102C700070B54A4D2DED068BB5F92A0095ED0F0A7A
:102C800000EE900AB8EEE01ADFED450AB5F928002B
:102C900095ED0E8A01EE200A01EE100A05F14C04B2
:102CA000B8EEC11AB4F92A0094ED0F9AD4ED0E8A49
:102CB00001EE208A01EE100AB4F92800B8EEC11A1C
:102CC00001EE209A01EE100AE868B8EEC11A41EE52
:102CD000208AF0EE480A00F0DBFDF0EE409AF0EEBC
:102CE000680AB0EE490AE06800F0D2FDB0EE409A02
:102CF000B0EEC80AF0EEE80A2A4E30EE608A9FED88
:102D00002AAA04F53B7086ED048AF0EE480AB0EE7C
:102D10004A0A00F0BDFDF1EE408AF0EE480AB0EE3E
:102D20004A0A04F5507000F0B3FD307AB1EE400A63
:102D300038B979EEA80A39EE000AC5ED0C0A84ED1F
:102D40000C0AB5F92C0000EE100A2869F8EEC00A4A
:102D500095ED0C0A00F09CFDBDEEC00A134910EE83
:102D6000100A01FA80F0A5F84200B4F92C0000EE38
:102D7000100A2069F8EEC00A94ED0C0A00F088FDF4
:102D8000BDEEC00A4FF4FA6110EE100A01FA80F0AD
:102D9000A4F84200BDEC068B70BD0000D0040020FA
:102DA0000000B443280000200000000030F8FFFFBE
:102DB0002DE9F84304F026FC00264FF42F781A4C36
:102DC0001A4D009006E06670401CA0810A216846FA
:102DD00003F0C4FF686910B9A0894045F3D9A08900
:102DE0004FF42E770125B84200D3E570A681B14695
:102DF0000E4E4C3608E000BF84F80190401CA081C4
:102E00000A21684603F0AAFF70690028A08907D04C
:102E1000B84200D3A570A4F80C906570BDE8F883A3
:102E20004045E9D9F6E7000028000020D004002042
:102E300003480178034801720349097841727047D9
:102E400045000020BC08002031000020104810B5CB
:102E50000E4901600321416000214FF4002281608E
:102E6000C0E903124FF4401242610176012242761A
:102E70008276C27601774177FEF7B9FA002803D04F
:102E8000BDE81040FDF78DBF10BD0000006400409C
:102E90002C0B0020104810B50E4901600321416041
:102EA00000214FF400228160C0E903124FF4401268
:102EB00042610176012242768276C27601774177BD
:102EC000FEF795FA002803D0BDE81040FDF769BF72
:102ED00010BD000000680040540B00201D4808B5DC
:102EE000016841F400110160016801F400110091D2
:102EF000016841F4800101600068002200F4800054
:102F0000009005210C20FEF751FF0C20FEF740FF3A
:102F1000002205213920FEF749FF3920FEF738FF4E
:102F2000002205213A20FEF741FF3A20FEF730FF4C
:102F3000002205214520FEF739FF4520FEF728FF36
:102F4000002205214620FEF731FFBDE8084046205B
:102F5000FEF71EBF3038024000B587B01C2206497C
:102F60006846FDF7BDFA0021684603F0D7FA034929
:102F7000086007B000BD0000108600085001002066
:102F800070B586B014216846FDF7E4FA21480024A4
:102F9000016841F002010160016801F00201059140
:102FA000016841F040010160016801F040010591B4
:102FB000016841F001010160016801F00101059122
:102FC000016841F008010160016801F00801059104
:102FD000016841F004010160016801F004010591FC
:102FE000016841F0800101600068012200F080006A
:102FF000094E9502059029463046FEF733FE012022
:103000000095CDE90104694630460394FEF732FD90
:1030100006B070BD30380240001C02400C4810B5AC
:103020000A4901604FF4E1314160002181600C22C6
:10303000C160C0E904128161C161FFF70FFC002883
:1030400003D0BDE81040FDF7ACBE10BD001001403C
:103050007C0B00200C4810B50A4901600B49416007
:10306000002181600C22C160C0E904128161C1614C
:10307000FFF7F4FB002803D0BDE81040FDF791BE38
:1030800010BD000000480040C00B0020A0860100D9
:103090000C4810B50A4901604FF4E131416000214C
:1030A00081600C22C160C0E904128161C161FFF737
:1030B000D5FB002803D0BDE81040FDF772BE10BD5F
:1030C00000140140040C00202DE9F041FDF778FECA
:1030D00000287CD04B4E307820B94B4890ED000A48
:1030E00000F09AFE3078052804D1474890ED050A93
:1030F00000F092FE30780F2804D1434890ED0F0A7B
:1031000000F08AFE424D3078404FF0EE001AA5F1F3
:103110004C049FED401A112831D1387802286ED125
:10312000B4F92A0094ED0F0A00EE900A3A4AB8EE7C
:10313000E02AF0EE400A42EE010A10EE901A9142A7
:103140005DDA00EE900AF8EEE00A00EE810A30EE59
:10315000210A84ED0F0AB5F92A0095ED0F0A00EE59
:10316000900A2046F8EEE00A00EE810A30EE610A8D
:1031700085ED0F0AFDF784FA2846FDF781FA3078CD
:1031800010283CD13878042839D1B4F92A0094EDBC
:103190000F0A00EE900ADFED212AB8EEE02AF0EEE9
:1031A000400A42EE010A94ED0D2A32EEC22AF4EEF4
:1031B000C20AF1EE10FA22DD00EE900AF8EEE00A03
:1031C00000EE810A30EE610A84ED0F0A00E016E09D
:1031D000B5F92A0095ED0F0A00EE900A0C48F8EEBA
:1031E000E00A4C3800EE810A30EE210A85ED0F0A24
:1031F000FDF746FABDE8F0410548FDF741BABDE8E4
:10320000F0810000440000204C000020D900002084
:103210001C0500200000B443CDCCCC3D00E08AC4A6
:1032200010B5B3EE0E0A0021084800F08BFA084CE6
:1032300008B1012007E09FED070A0021034800F0D4
:1032400081FA00B10220607010BD0000D00400209F
:1032500044000020000048432DE9F041B44C2DED1E
:10326000088B2078E8B101281BD0022819D0032848
:1032700017D0042815D0052813D0062811D0072808
:103280000FD008280DD009280BD00A2809D00B2808
:1032900007D00C2805D00D2803D00E2801D00F2808
:1032A00007D1A349083101EB800090ED000A00F03E
:1032B000B3FD274620789F4EDFF87C829F4DA04CBF
:1032C000F7EE088A9FED9F8A112836D130780228C0
:1032D00001D003287ED19C48007801287AD1B4F926
:1032E0002A0094ED0F0A00EE900AB8EEE01AF0EE14
:1032F000400A41EE080A10EE901A41456ADA00EEE3
:10330000900AF8EEE00A00EE880A30EE280A84ED12
:103310000F0AB5F92A0095ED0F0A00EE900A8848C9
:10332000F8EEE00A00EE880A30EE680A85ED0F0A32
:10333000FDF7A6F98148FDF7A3F9387810283DD1AB
:103340003078022801D0032844D180480078012831
:1033500040D1B4F92A0094ED0F0A00EE900AB8EEBD
:10336000E01AF0EE400A41EE080A94ED0D1ADFED86
:10337000781A31EEC11AF4EEC10AF1EE10FA29DD25
:1033800000EE900AF8EEE00A00EE880A30EE680AD5
:1033900084ED0F0AB5F92A0095ED0F0A00EE900AA8
:1033A0006748F8EEE00A00EE880A30EE280A85ED5C
:1033B0000F0AFDF765F96148FDF762F938781228C0
:1033C00031D1B4F92A0094ED0F0A00EE900AB8EE5C
:1033D000E01A00E085E0F0EE400A41EE080A10EE47
:1033E000901A41457DDA00EE900AF8EEE00A00EE10
:1033F000880AF7EE000A30EE200A84ED0F0AB5F9CC
:103400002A0095ED0F0A01EE100A4D48B8EEC11AD8
:1034100001EE080A30EE600A85ED0F0AFDF730F97B
:103420004648FDF72DF9387813287CD130780328E9
:1034300079D148480078012875D1B4F92A0094ED73
:103440000F0A00EE900AF8EEE00A00EE880A10EE8D
:10345000100A404567DA97ED010A9FED3FBADFEDAC
:103460003F8A60EE0B0A80EEA80A10EE100A04F004
:10347000A9FE41EC100B02F0ABFB9FED399B51EC28
:10348000100B53EC192B04F0A9FC41EC1A0BB4F906
:103490002A0094ED0F0A00EE900AF8EEE00A00EE22
:1034A000880A10EE100A04F08DFE53EC1A2B04F07B
:1034B0003BFA04F007FAE06397ED010A60EE0B0AAD
:1034C00080EEA80A10EE100A04F07CFE41EC100B0E
:1034D00002F07EFB53EC192B51EC100B04F07EFC38
:1034E00000E020E041EC190BB5F92A0095ED0F0A38
:1034F00000EE900AF8EEE00A00EE880A10EE100ADC
:1035000004F060FE53EC192B04F072FD04F0DAF9BC
:10351000E8630B48FDF7B4F8BDEC088BBDE8F0415B
:103520000648FDF7ADB8BDEC088BBDE8F0810000A2
:1035300044000020CB000020CDCCCC3D1C05002059
:10354000D00400200000B443E5000020E800002083
:1035500000E08AC4F7000020C3F54840000034436F
:10356000666666666666E63FFEE70000F0B5002820
:103570007DD0584D00230126DFED570A9FED570AF5
:1035800005F14C04A8424CD190F84450002D47D18D
:10359000B0F918500A2D6BDAB0F9425041F2883771
:1035A000BD4265DBB0F84650294489B2A0F8461008
:1035B000914203D294F84410012931D180F844603B
:1035C000C18B01EE101A90F82410F8EE411A81EE2A
:1035D000A01A61EE001A01EE101AB8EE412A81EE2F
:1035E000821A80ED0D1A80ED0F1A43850385C3847E
:1035F000E18B01EE101A94F82410B8EE411AC1EED6
:10360000201A61EE800A00EE101AB8EE401A80EE21
:10361000810A84ED0D0A84ED0F0A63852385E38416
:1036200055E0A04253D190F84440ECBBB0F91840AB
:1036300014F10A0F49DDB0F9424041F28837FC42EB
:1036400043DCB0F84640214489B2A0F846109142CC
:1036500003D295F84410012939D180F84460C18B18
:1036600001EE101AF8EE411A81EEA01A01E030E0E6
:103670002BE090F8241061EE001A01EE101AB8EE5B
:10368000412A81EE821A80ED0D1A80ED0F1A4385D2
:103690000385C384E98B01EE101AB8EE411AC1EE1E
:1036A000201A61EE800A00E011E095F8241000EE87
:1036B000101AB8EE401A80EE810A85ED0D0A85EDEC
:1036C0000F0A6B852B85EB8401E0A0F8463090F85B
:1036D0004400F0BDD004002000F8FF450000B443D2
:1036E00030B5FFF7ADFA0E4C04F14C0538B99FED3B
:1036F0000D0A84ED0C0A9FED0C0A85ED0C0AFFF70C
:103700009FFA01280AD120699FED080A084980ED37
:10371000040A286980ED040A0120487230BD0000C7
:10372000D00400200000FA430000FAC300000000AB
:103730002800002010B5FFF79BFABDE81040FDF708
:1037400061B90000428DF0EEC00A4FF4B47312FB71
:1037500003F201EE102A90ED0F0AB8EEC11A31EE15
:10376000001AE1B191F90A001A4610FB02F000EECE
:10377000100AB1F90C00B8EEC00A31EE401A00EEA2
:10378000100AB8EEC00A31EE400A00BFB0EEC00A1F
:10379000B4EEE00AF1EE10FA11D201207047018D6B
:1037A0004FF4B47211FB02F100EE101AB8EEC00A29
:1037B00031EE400A90ED0E1A30EE410AE6E70020A5
:1037C000704730B50028DDE9034505D0456001703C
:1037D00080F82440C0E9032330BDFEE710B500287F
:1037E000039CDDED020A31D0017092ED000A80EDFC
:1037F000080A92ED010A80ED090A92ED020A80EDB5
:103800000A0A00EE103AB8EE400A80ED110AB8EE4E
:10381000600A80ED120A9FED0E0A80ED070A80ED26
:10382000060A80ED050A80ED040A80ED030A80EDAA
:10383000020A80ED010A80ED0E0A80ED0D0A80ED8E
:103840000C0A80ED0B0AA0F85040012010BD0000CA
:1038500000000000002818D09FED0C0A80ED030A3C
:1038600080ED020A80ED010A80ED040A80ED070A6E
:1038700080ED060A80ED050A80ED0D0A80ED0C0A48
:1038800080ED0B0A80ED0E0A012070470000000059
:10389000B0B1D0ED021AC0ED031A90ED011A80ED1F
:1038A000021A80ED0F0AC0ED100A70EE600AC0ED3A
:1038B000010A017839B101294DD090ED0E0A704707
:1038C0009FED400A704790ED080A60EE201AC0EDA7
:1038D0000B1A90ED040A30EE200A70EEC10A80ED5A
:1038E000040A90ED092A22EE000A80ED0C0A90ED00
:1038F000062A80ED072A90ED052A80ED062AC0ED04
:10390000050A90ED0A1A21EE201A80ED0D1AD0ED6D
:10391000120AB4EEE00AF1EE10FA06DCF1EE600AEB
:10392000B4EEE00AF1EE10FA01D2B0EE600A80EDDA
:103930000C0A31EE800A30EE010A38E0F1EE600A3E
:10394000B4EEE00AF1EE10FA02D200BFB0EE600A67
:1039500080ED0E0A704730EEC10A90ED082A20EE85
:10396000020A80ED0B0A90ED092A22EE202A80ED52
:103970000C2AD0ED062A30EE020AC0ED072AD0ED5F
:10398000052AC0ED062AF0EE002A41EE620A70EE2A
:10399000A10AC0ED050A90ED0A1A61EE200AC0EDF9
:1039A0000D0A30EE200AD0ED0E0A30EE200A80ED2E
:1039B0000E0AD0ED110AB4EEE00AF1EE10FAC5DC01
:1039C000BCE70000000000003EB52549002201923E
:1039D0000968C968C90641D522490B684968006869
:1039E00001684068204900900868036823F00103DB
:1039F000036008684368C3F11403DCB21B4B1C70FE
:103A000003681D031A4B06D5026822F400220260E7
:103A10000120187004E0056845F4002505601A705F
:103A2000122C01D0022018700A6814205060086817
:103A3000016841F00101016000F020F80D4801A982
:103A4000006803F035FA0198002807D00A494FF0C2
:103A500080500860BFF34F8FBFF36F8F3EBD0000F3
:103A6000C00B002000100140080D002025000020A0
:103A7000F8020020AC00002004ED00E070B5694CB5
:103A8000207802287ED000EB400101EBC00004EB5F
:103A90004002A4F1280041798B0982F83030227865
:103AA00002EB420303EBC20204EB4202C1F3011337
:103AB00082F83130227802EB420303EBC202038822
:103AC00004EB4202C3F30A035386227802EB42035B
:103AD00003EBC20204EB42034278D508827845EA40
:103AE0004215C5F30A059D862378920903EB430529
:103AF00005EBC303C57804EB430342EA850502796D
:103B000045EA8225C5F30A05DD862378520803EBD2
:103B1000430505EBC30304EB430342EAC111C1F3C0
:103B20000A011987217801EB410202EBC101028AE7
:103B300004EB4101C2F30A024A87217801EB4102FA
:103B400002EBC10104EB4101C2888A87217801EBB5
:103B5000410202EBC10104EB41010289CA872178CD
:103B600001EB410202EBC10104EB41014289A1F8E2
:103B70004020217801EB410202EBC10104EB41013D
:103B8000027B00E01BE081F84220217801EB41023A
:103B900002EBC10104EB4101427B81F84320217813
:103BA000C08901EB410202EBC10104EB4101A1F824
:103BB000440001F0EFFE01F021FF012070BD00255F
:103BC00084F8305084F831504FF480606086A086CD
:103BD000E08620876087A587E587A4F840501149D3
:103BE00084F8425084F843503031A4F844501622EF
:103BF00001F11600FCF72FFCA5816581A58565857F
:103C00002585E584A58465842584E583A58365836E
:103C10002583E582A58265822582E5810120607089
:103C2000002070BDF80200202DE9F047074600246F
:103C3000124D1EE0285DA52801D0641C18E028194B
:103C40008046B0F80590B0F80160052101F01EFF34
:103C500068B1404606F1090101F0FAFE38B1494663
:103C6000204600F031F8A0190930C4B201E009344F
:103C7000E4B2BC42DED3BDE8F0870000D0010020F2
:103C800038B504460068C168C9061CD5016840689B
:103C90000090A06B0068016821F001010160A06B39
:103CA00000684068C0F1820010F0FF0001D0FFF70B
:103CB000BBFFA16B822009684860A06B00680168A7
:103CC00041F00101016038BD30B40A46A1F202237F
:103CD0004F494F4C014440F2022580344D48AA42DE
:103CE00067D023DC40F20115A2F20113AA424ED0A4
:103CF0000FDC012A39D0022A42D0032A43D0042AF9
:103D000005D1B1F80720A0F80720497A417230BCEC
:103D10007047012B40D0032B43D0042B46D0B3F582
:103D2000807FF4D13A481B22AD3049E0052B51D0B9
:103D30000ADC012B41D0022B46D0032B47D0042BA9
:103D4000E5D1C9790171E2E7062B4CD0072B51D0A0
:103D5000082B54D0B3F5817FD9D151F8070F606794
:103D60004868A0678868E067D1E751F8070F44F812
:103D7000020F4868606008892081887AA072C6E7CF
:103D8000C9790170C3E7224820228D3018E0D1F8AC
:103D90000710C0F80A10BAE7D1F80710C0F80E10E3
:103DA000B5E7B1F80710A0F80510B0E7C979417080
:103DB000ADE717481022C83002E015481022D8306D
:103DC00030BCC91DFCF747BBC97981709FE7C97931
:103DD000C1709CE751F8072FC2618A8802848979F3
:103DE00080F8221093E751F8072FC0F81620898831
:103DF00041838CE7D1F80710C0F8121087E751F81B
:103E0000070FA0664868E066886820677FE70000C3
:103E1000D001002002000020104800B50169DFED4C
:103E20000E0AC1ED040A00F14C010A69C2ED040A50
:103E3000D0ED0D0A70EE800AC0ED0F0AD1ED0D0A2B
:103E400030EEC00A81ED0F0AFCF71AFC03485DF85A
:103E500004EB4C30FCF714BC00000000D004002040
:103E600003480021017041708170C17070470000EB
:103E7000C800002010B5502080F31188BFF34F8F89
:103E8000BFF36F8F03F0C4FB18B104494FF08050AB
:103E90000860002080F3118810BD000004ED00E0F0
:103EA00030B593B030216846FCF754FB14210CA8C0
:103EB000FCF750FB1D480025016841F0805101606E
:103EC000006800F0805011901948016841F4804169
:103ED00001600068022400F48040119001200090ED
:103EE000000401908001CDE9064006200890A8203A
:103EF000CDE9090404200B906846FEF795F808B157
:103F000072B6FEE70CA90F2081E831004FF4A050F3
:103F10000F904FF48050109005210CA8FDF778FF0A
:103F2000002801D072B6FEE713B030BD4038024021
:103F3000007000400248016841F470010160704760
:103F400088ED00E00148FEF796BA0000280E002038
:103F5000F0B50268254C264D264E274F274B4FF0D3
:103F6000804CA04209D0604507D0A84205D0B0429D
:103F700003D0B84201D0984204D122F0700E4A68B2
:103F800042EA0E02A0421BD0604519D0A84217D0C9
:103F9000B04215D0B84213D0984211D0184DA84263
:103FA0000ED0184DA8420BD0174DA84208D0174D7F
:103FB000A84205D0164DA84202D0164DA84203D102
:103FC00022F44075CA682A434D6922F080022A43D0
:103FD00002608A68C2620A688262A04201D0984286
:103FE00001D10969016301214161F0BD0000014077
:103FF0000004004000080040000C004000040140A4
:1040000000400140004401400048014000180040C9
:10401000001C004000200040134C124F134D4FF085
:10402000FF3804F1080600BF03F0ECFA28604246AE
:104030000D49386803F0AAF92078012802D0022837
:1040400009D103E032460A48616802E03246094875
:104050006168FCF759FC03F0D5FA2968401A6860DA
:10406000E2E70000B8000020C8080020A4000020FB
:104070002C0B0020540B00201CB502F0CDFDFCF7EA
:1040800025FB16490E20CDE900014FF48074002372
:10409000224613A1154803F04FFA10490D20091FBD
:1040A000CDE900010023224611A1164803F044FA8D
:1040B0000A490C20091DCDE900010023224612A166
:1040C000164803F039FA4FF47A70FDF7C1FC00206E
:1040D00002F08AFEBDE81C4002F0BEBDB000002028
:1040E0005461736B5F43414E0000000019400008AB
:1040F0005461736B5F53746174654D616368696E7D
:1041000065000000CD4100085461736B5F4D6F7412
:104110006F72436F6E74726F6C0000002141000873
:1041200008B503F06FFA244D244C009003F06AFAAE
:1041300060602078401C20702878012831D1FFF77A
:10414000F9FA20780321B0FBF1F201FB120018B953
:10415000FEF76EFE00F0E2FBFCF732FE98B1184865
:10416000B0F942101748B0F94200FCF715FB1648A9
:10417000B0F92631B0F9DA20B0F98E10B0F942006A
:10418000FCF762FC0DE000210846FCF705FB00236C
:104190001A4619461846FCF757FCFCF793FBFCF748
:1041A000ABFC03F02FFA6168401AA0600121684659
:1041B00002F0D4FDBAE700003C000020BC00002063
:1041C0001C050020D0040020A0030020FFF748FEBB
:1041D000FCF7FEFAFCF756FC1B4901201B4E1C4F56
:1041E000DFF87080DFF870901C4C087000254FF0ED
:1041F000FF3A00BF03F006FA20676078D0B100F004
:104200009FFB3078012807D03D7088F8445089F82A
:104210004450A07818B106E0FFF762FA0AE0FEF712
:1042200053FFFEF7FDFFA078012803D1FFF714F834
:10423000FEF7F6FF03F0E6F9216F401A606751467A
:10424000012002F065FCD5E73C0000203000002092
:1042500031000020D00400201C050020C8000020F0
:1042600010B5806B0021C185C184FEF7C2F910BD75
:1042700070B5846B2068406994F83D10C0F3C0109D
:104280000025212904D118B1E584204600F08AF8E0
:104290002068406994F83E10C0F38010222904D1B0
:1042A00018B1E585204600F056F8206C40F010006B
:1042B00020642046FEF79DF970BD10B50146806B65
:1042C00009680968C9052FD40021C18501680C312E
:1042D00051E8002F22F4807241E80023002BF5D131
:1042E0000168143151E8002F22F0010241E8002357
:1042F000002BF5D10168143151E8002F22F0400263
:1043000041E80023002BF5D1202180F83E10016BFD
:10431000012909D101680C3151E8002F22F0100267
:1043200041E80023002BF5D1016B012902D0FEF7F3
:1043300028FC10BD818DFEF75BF910BD10B5806BB8
:10434000016B012902D0FEF71DFC10BD818D4908CB
:10435000FEF74EF910BD01680C3151E8002F22F430
:10436000907241E80023002BF5D10168143151E827
:10437000002F22F0010241E80023002BF5D1016B50
:10438000012909D101680C3151E8002F22F01002F7
:1043900041E80023002BF5D1202180F83E100021B8
:1043A0000163704701680C3151E8002F22F0C00210
:1043B00041E80023002BF5D1202180F83D10704703
:1043C00008B590F83E10222901D0022008BD82686D
:1043D0004FF480539A4201D1016921B1816A9A4216
:1043E0001BD04AB10AE00268816A5268C2F308022F
:1043F0000A80816A891C08E0026972B10268526809
:1044000002F07F020A70816A491C8162C18D491ED7
:104410000904090CC18503D019E002685268F1E76C
:104420000168CA6822F02002CA600168CA6822F4E2
:104430008072CA6001684A6922F001024A61202143
:1044400080F83E10016B012903D0FEF79AFB002093
:1044500008BD0021016301680C3151E8002F22F0F2
:10446000100241E80023002BF5D101680A68D2064A
:1044700002D50A6849680091818DFEF7B9F8E6E730
:1044800070B5044600680169E26821F440511143A7
:1044900001612169A068E269084361691143084329
:1044A0002168CA6849F20C639A430243CA602068D3
:1044B0004169A26921F44071114341613149206889
:1044C000884202D03049884202D1FDF76BFD01E0FD
:1044D000FDF758FDE2690023192164253226B2F563
:1044E000004F626828D0A0FB0101930F9200FBF7F8
:1044F0003BFF0146B0FBF5F06FF01802504301EBB3
:10450000800006EB0010B0FBF5F000F0F002B1FB0C
:10451000F5F002EB0012B1FBF5F06FF01803584311
:1045200001EB800006EB0010B0FBF5F000F00F008F
:1045300021681044886070BDA0FB010192185B41A6
:10454000FBF712FF0146B0FBF5F00201B1FBF5F0FD
:104550006FF01803584301EB800006EBC000B0FB7E
:10456000F5F000F0F80002EB4002B1FBF5F0584323
:1045700001EB800006EBC000B0FBF5F000F0070097
:10458000D6E70000001001400014014038B58162F8
:1045900082850025134604460564222084F83E00E7
:1045A000A26B1C48D063A26B1B481064A26B1B4813
:1045B000D064A06B0A4605652168A06B091DFDF754
:1045C0000FFA206801684068009084F83C50206928
:1045D00048B120680C3050E8001F41F4807140E879
:1045E0000012002AF5D12068143050E8001F41F075
:1045F000010140E80012002AF5D12068143050E88B
:10460000001F41F0400140E80012002AF5D10020CF
:1046100038BD0000BB4200083D430008714200085D
:104620002DE9F041984617460E460446069D27E0C0
:10463000681C25D02DB1FDF71BFBA0EB0800A8429C
:104640001ED920680C3050E8001F21F4D07140E8DA
:104650000012002AF5D12068143050E8001F21F024
:10466000010140E80012002AF5D1202084F83D0025
:1046700084F83E00002084F83C000320BDE8F0816F
:104680002068006836EA000004D00020B842CFD08D
:104690000020F3E70120F9E710B50448FDF7AAFF71
:1046A000BDE81040014800F01BB800007C0B002062
:1046B00010B50448FDF79EFFBDE810400148FFF724
:1046C00083B90000C00B002010B50448FDF792FF2D
:1046D000BDE810400148FFF7D3BA0000040C0020E9
:1046E0001CB50446002000902168C968C90630D571
:1046F000A16B09680A6822F001020A6021680A6851
:1047000049680191A16B09684968124A11F0FF01DB
:10471000117002D000F024F80120A26B2C21126845
:104720005160A16B09680A6842F001020A60002822
:104730000FD009486946006802F0BAFB00980028CB
:1047400007D006494FF080500860BFF34F8FBFF38A
:104750006F8F1CBD26000020AC00002004ED00E09F
:104760005148017801297DD190F82A10042979D186
:104770004E4A10F8081F11704D4A417811704D4A89
:10478000817811704C4AC17811704C4A01791170CE
:104790004B4A417911704B4A817911704A4AC1796B
:1047A00011704A4A017A1170B0F90A1000EE101A1D
:1047B000F8EEC00A9FED460A46494A4A80EE801A42
:1047C00081ED001AB0F90C1000EE901A4249F8EE93
:1047D000E00A80EE801A81ED001AB0F90E1000EEAA
:1047E000901A3E49F8EEE00A80EE801A81ED001A38
:1047F000B0F9101000EE901A3949F8EEE00A80EE98
:10480000801A81ED001A418A1180374A818A11800D
:10481000B0F9161000EE101A3449B8EEC00A81ED56
:10482000000AB0F9181000EE101A3149B8EEC00AAB
:1048300081ED000A2F49827E0A70C27E4A70027F93
:104840008A70417F2C4BC1F380121A702B4BC1F33D
:1048500040121A702A4BC1F300121A70C1F3C00241
:10486000284B00E01EE01A70274BC1F380021A703B
:10487000264BC1F3400201F001011A70244A117065
:10488000B0F91E1000EE101A2249B8EEC00A81EDF0
:10489000000AB0F9200000EE100A1F48B8EEC00A66
:1048A00080ED000A7047000054030020C80000207B
:1048B000C9000020CA000020CB0000209C0000207E
:1048C000440000203F0000203E0000203000002077
:1048D0000000C8424001002044010020480100209F
:1048E0004C01002040000020420000204800002031
:1048F000A0000020D9000020F7000020E5000020E3
:10490000E8000020EE000020EB0000201501002050
:10491000180100201C010020200100200648112160
:10492000FF230170142181724168491C41600146D6
:104930000C220248FEF728B9BC0800207C0B00209E
:104940002DE9F05F2DED0C8BFCF72EFA9FEDFE8A22
:10495000DFEDFE8AFE4E0025FE4C42F2283900288B
:104960007ED1FCF72DFA00280DD07078FA4F9FED1C
:10497000FB9ADFF8EC83DFEDFB9A012804D00228D4
:104980006FD000286ED0ACE0B6F9040000EE100A3B
:10499000B8EEC00A60EE080A80EEA80A10EE100A0F
:1049A00003F010FC41EC100B01F012F9B0EE40AA3C
:1049B00097ED000AF0EE60AABA4620EE090A10EE62
:1049C000100A03F0FFFB53EC1A2B03F007FA41EC3B
:1049D0001B0BB6F9040000EE100AB8EEC00A60EE38
:1049E000080A80EEA80A10EE100A03F0EBFB41EC77
:1049F000100B01F089F8B0EE40AA98ED000AF0EE35
:104A000060AA474620EE090A10EE100A03F0DAFB0E
:104A100053EC1A2B03F0E2F953EC1B2B02F084FF4A
:104A200003F082F9E080B6F9040000EE100AB8EE57
:104A3000C00A60EE080A80EEA80A10EE100A03F021
:104A4000C1FB41EC100B01F0C3F8B0EE40AA97EDAA
:104A5000000AF0EE60AA20EE090A10EE100A02E049
:104A600042E034E037E003F0ADFB53EC1A2B03F0E7
:104A7000B5F941EC1A0BB6F9040000EE100AB8EED5
:104A8000C00A60EE080A80EEA80A10EE100A03F0D1
:104A900099FB41EC100B01F037F8B0EE40BA9AEDFB
:104AA000000AF0EE60BA20EE290A10EE100A03F0B8
:104AB00089FB53EC1B2B03F091F953EC1A2B02F0FA
:104AC00033FF03F031F92081A4F80A900CE0E5806F
:104AD0002581708835E0A448A449007848B10128B0
:104AE00015D0E58025816581FCF75EF901282AD083
:104AF000E3E298ED000A20EE090ABDEEC00A10EECE
:104B0000100AE08097ED000A20EE290A0CE098EDEB
:104B1000000A20EE290ABDEEC00A10EE100AE0805D
:104B200097ED000A20EE090ABDEEC00A10EE100A49
:104B3000208191ED000A20EE090ABDEEC00A10EEB8
:104B4000100A6081D0E7FCF73BF90028D0D07078DC
:104B5000DFF81CA29FED879ADFF81CB29FED87DB80
:104B60009FED88ABDFED899A894F012804D0022898
:104B70007DD000287CD0F3E3FCF71CF99FED85CBBA
:104B80009FED86BB20B1FCF715F9012871D094E2A6
:104B90009AF8000001284BD09BF80000012869D04A
:104BA00080480078012866D07F4800780128B6F94F
:104BB000040000EE100AB8EEC00A60EE080A80EEAB
:104BC000A80A10EE100A7DD003F0FCFA41EC100B9D
:104BD00000F0FEFFB0EE40AA97ED000AF0EE60AAEA
:104BE00020EE290A10EE100A03F0ECFA53EC1A2B0F
:104BF00003F0F4F803F098F8E080B6F9040000EE52
:104C0000100AB8EEC00A60EE080A80EEA80A10EE9C
:104C1000100A03F0D7FA41EC100B00F075FFB0EE6C
:104C2000408A97ED000AF0EE608A20EE090A37E22A
:104C3000B6F9040000EE100AB8EEC00A60EE080AE9
:104C400080EEA80A10EE100A03F0BCFA41EC100B3B
:104C500000F0BEFFB0EE40AA97ED000AF0EE60AAA9
:104C600020EE090A10EE100A03F0ACFA04E0EAE3C1
:104C7000EDE3C6E13CE0C7E053EC1A2B03F0AEF8DD
:104C800041EC1A0BB6F9040000EE100AB8EEC00AA7
:104C900060EE080A80EEA80A10EE100A03F092FAFD
:104CA00041EC100B00F030FF53EC1C2B51EC100BBF
:104CB00003F094F853EC1A2B03F09AF903F034F84C
:104CC000E08000E025E1B6F9040000EE100AB8EE3D
:104CD000C00A60EE080A80EEA80A10EE100A03F07F
:104CE00071FA41EC100B00F073FF53EC1B2BE2E068
:104CF000B6F9040000EE100AB8EEC00A60EE080A29
:104D000080EEA80A10EE100A03F05CFA41EC100BDA
:104D100000F05EFFB0EE40AA97ED000AF0EE60AA48
:104D200020EE090A10EE100A03F04CFA53EC1A2B8D
:104D300003F054F841EC1A0BB6F9040000EE100A27
:104D4000B8EEC00A32E00000C3F54840000034432A
:104D50003E000020B00800204801002000401C4612
:104D60004401002000401CC69C0000204C01002093
:104D70001801002000008243EB000020000000002A
:104D800000C082C00000000000C08240000082C35A
:104D900020010020000000000050A4C0000000001E
:104DA0000050A44015010020EE00002060EE080A2B
:104DB00080EEA80A10EE100A03F004FA41EC100B82
:104DC00000F0A2FE53EC1B2B51EC100B03F006F885
:104DD00053EC1A2B03F00CF902F0A6FFE080B6F9B1
:104DE000040000EE100AB8EEC00A60EE080A80EE79
:104DF000A80A10EE100A03F0E5F941EC100B00F0E0
:104E0000E7FE53EC1B2BCFE0B6F9040000EE100ACE
:104E1000B8EEC00A60EE080A80EEA80A10EE100A8A
:104E200003F0D0F941EC100B00F0D2FEB0EE40BA26
:104E300097ED000AF0EE60BA20EE090A10EE100AB3
:104E400003F0C0F953EC1B2B02F0C8FF41EC1B0B25
:104E5000B6F9040000EE100AB8EEC00A60EE080AC7
:104E600080EEA80A10EE100A03F0ACF941EC100B2A
:104E700000F04AFE53EC1D2B51EC100B02F0AEFF7C
:104E800053EC1B2B03F0B4F802F04EFFE080B6F9B0
:104E9000040000EE100AB8EEC00A60EE080A80EEC8
:104EA000A80A10EE100A03F08DF941EC100B00F087
:104EB0008FFE53EC1A2B51EC100B02F08FFF41ECDC
:104EC0001A0BB6F9040000EE100AB8EEC00A60EE44
:104ED000080A80EEA80A10EE100A03F073F941ECFC
:104EE000100B00F011FEB0EE408A97ED000AF0EED4
:104EF000608A20EE090A00BF10EE100A03F062F982
:104F000053EC182B02F06AFF53EC1A2B03F070F8E5
:104F1000CEE003F057F941EC100B00F059FEB0EE73
:104F200040BA97ED000AF0EE60BA20EE090A10EEE2
:104F3000100A03F047F953EC1B2B02F04FFF41EC32
:104F40001B0BB6F9040000EE100AB8EEC00A60EEC2
:104F5000080A80EEA80A10EE100A03F033F941ECBB
:104F6000100B00F0D1FD53EC1A2B51EC100B02F09A
:104F700035FF53EC1B2B03F03BF802F0D5FEE0802D
:104F8000B6F9040000EE100AB8EEC00A60EE080A96
:104F900080EEA80A10EE100A03F014F941EC100B91
:104FA00000F016FE53EC1A2B51EC100B02F016FF1A
:104FB00041EC1A0BB6F9040000EE100AB8EEC00A74
:104FC00060EE080A80EEA80A10EE100A03F0FAF864
:104FD00041EC100B00F098FDB0EE408A97ED000A0E
:104FE000F0EE608A20EE090A10EE100A03F0EAF8EB
:104FF00053EC182B02F0F2FE53EC1A2B02F094FC47
:1050000056E09AF80000012858D09BF800000128CB
:105010007DD0FE48007801287AD0FD48007801282C
:10502000B6F9040000EE100AB8EEC00A60EE080AF5
:1050300080EEA80A10EE100A6BD003F0C3F841EC22
:10504000100B00F0C5FDB0EE40AA97ED000AF0EE9F
:1050500060AA20EE090A10EE100A03F0B3F853EC30
:105060001A2B02F0BBFE02F05FFEE080B6F90400EE
:1050700000EE100AB8EEC00A60EE080A80EEA80A38
:1050800010EE100A03F09EF841EC100B00F03CFD0E
:10509000B0EE408A97ED000AF0EE608A20EE290A11
:1050A00010EE100A03F08EF853EC182B02F096FE67
:1050B00002F03AFE2081A4F80A9046E3B6F9040013
:1050C00000EE100AB8EEC00A60EE080A80EEA80AE8
:1050D00010EE100A03F076F841EC100B00F078FDAA
:1050E000B0EE40AA97ED000AF0EE60AA20EE090AA1
:1050F00010EE100A03F066F853EC1A2B02F06EFE65
:1051000041EC1A0BB6F9040000EE100A02E031E09F
:10511000AEE026E1B8EEC00A60EE080A80EEA80A0A
:1051200010EE100A03F04EF841EC100B00F0ECFC0E
:1051300053EC1B2B51EC100B02F050FE53EC1A2BCE
:1051400002F0F2FB02F0F0FDE080B6F9040000EEA0
:10515000100AB8EEC00A60EE080A80EEA80A10EE47
:10516000100A03F02FF841EC100B00F031FD53EC66
:105170001B2BD4E0B6F9040000EE100AB8EEC00A0A
:1051800060EE080A80EEA80A10EE100A03F01AF882
:1051900041EC100B00F01CFDB0EE40AA97ED000AA8
:1051A000F0EE60AA20EE090A10EE100A03F00AF8E9
:1051B00053EC1A2B02F012FE41EC1A0BB6F9040064
:1051C00000EE100AB8EEC00A60EE080A80EEA80AE7
:1051D00010EE100A02F0F6FF41EC100B00F094FC08
:1051E00053EC1C2B51EC100B02F0F8FD53EC1A2B76
:1051F00002F09AFB02F098FDE080B6F9040000EEA0
:10520000100AB8EEC00A60EE080A80EEA80A10EE96
:10521000100A02F0D7FF41EC100B00F0D9FC53EC60
:105220001B2B51EC100B02F0D9FD41EC1A0BB6F917
:10523000040000EE100AB8EEC00A60EE080A80EE24
:10524000A80A10EE100A02F0BDFF41EC100B00F0AE
:105250005BFCB0EE408A97ED000AF0EE608A20EE2B
:10526000290A10EE100A02F0ADFF53EC182B49E6A4
:10527000B6F9040000EE100AB8EEC00A60EE080AA3
:1052800080EEA80A10EE100A02F09CFF41EC100B11
:1052900000F09EFCB0EE40BA97ED000AF0EE60BA66
:1052A00020EE090A10EE100A02F08CFF53EC1B2BC3
:1052B00002F094FD41EC1B0BB6F9040000EE100A5D
:1052C000B8EEC00A60EE080A80EEA80A10EE100AD6
:1052D00002F078FF41EC100B00F016FC53EC1A2B97
:1052E00051EC100B02F07AFD53EC1B2B02F01CFB6F
:1052F00002F01AFDE080B6F9040000EE100AB8EEE4
:10530000C00A60EE080A80EEA80A10EE100A02F049
:1053100059FF41EC100B00F05BFC53EC1A2B51ECE5
:10532000100B02F05BFD41EC1A0BB6F9040000EE25
:10533000100AB8EEC00A60EE080A80EEA80A10EE65
:10534000100A02F03FFF41EC100B00F0DDFBB0EE65
:10535000408A97ED000AF0EE608A20EE290A43E6C3
:10536000D5E202F02FFF41EC100B00F031FCB0EE63
:1053700040BA97ED000AF0EE60BA20EE090A10EE8E
:10538000100A02F01FFF53EC1B2B02F027FD41EC2B
:105390001B0BB6F9040000EE100AB8EEC00A60EE6E
:1053A000080A80EEA80A10EE100A02F00BFF41EC8A
:1053B000100B00F0A9FB53EC1D2B51EC100B02F06D
:1053C0000DFD53EC1B2B02F0AFFA02F0ADFCE080B8
:1053D000B6F9040000EE100AB8EEC00A60EE080A42
:1053E00080EEA80A10EE100A02F0ECFE41EC100B61
:1053F00000F0EEFB53EC1A2B51EC100B02F0EEFC1C
:1054000041EC1A0BB6F9040004E00000150100207D
:10541000EE00002000EE100AB8EEC00A60EE080AA6
:1054200080EEA80A10EE100A02F0CCFE41EC100B40
:1054300000F06AFBB0EE408A97ED000AF0EE608A59
:1054400020EE290A58E5E5802581708860E13078F2
:105450004FF41678DFF80494C8F1000630B1012843
:105460007DD002287CD003287BD050E2FBF7A2FC41
:10547000022810D0FBF79EFC032834D0FBF79AFCDF
:10548000DFF8DC939FEDF78A00286BD0FBF792FCE6
:10549000012868D059E19AF80000012813D09BF840
:1054A0000000012812D0F0480078012812D0EF48FF
:1054B0000078012810D0E580ED49386888420EDD7B
:1054C000A4F80880C7E04FF6882001E04FF4AF60F1
:1054D000E080F1E7E680EFE7A4F80680ECE74845D6
:1054E0007DD82581B7E0E3480078012803D1E24860
:1054F0000078132817D09AF80000012870D09BF884
:10550000000001286DD0D848007801286AD0D7481B
:105510000078012867D0E580D549386888425EDC8C
:105520004845DED9CCE79AF80010D4489FEDD49BCB
:10553000012928D09BF8001001293DD0CA490978DB
:1055400001295ED090ED000AC84960EE080A09788A
:10555000012980EEA80A10EE100A6BD004E0E5E005
:105560009EE1D1E18EE0B0E002F02CFE41EC100BA8
:1055700000F02EFB53EC192B51EC100B02F02EFC1B
:1055800002F0D2FB77E090ED000A60EE080A80EEB0
:10559000A80A10EE100A02F015FE41EC100B00F004
:1055A00017FB53EC192B51EC100B02F017FC41ECDC
:1055B000100B9FEDB51B1DE090ED000A60EE080A90
:1055C00080EEA80A10EE100A02F0FCFD41EC100B70
:1055D00000F0FEFA53EC192B51EC100B04E089E1BA
:1055E00044E046E049E04BE002F0F8FB41EC100BF0
:1055F0009FEDA71B53EC112B51EC100B02F094F90B
:10560000BEE790ED000A60EE080A80EEA80A10EEF0
:10561000100A02F0D7FD41EC100B00F0D9FA53EC60
:10562000192B51EC100B02F0D9FB41EC100B53EC91
:105630001A2BE1E702F0C6FD41EC100B00F0C8FAAE
:1056400053EC192B51EC100B02F0C8FB41EC100B82
:1056500053EC1D2BD0E79048006888427EDDA4F80B
:105660000A8072E0668170E065816EE04FF4AF60A1
:1056700001E04FF68820E0804EE7A4F806804BE773
:10568000E68049E79AF80000012812D09BF8000054
:10569000012811D074480078012811D0734800788F
:1056A00001280FD0A4F8065097ED000A20EE090A51
:1056B00020E0A4F80690F7E740F62820E080F3E722
:1056C000E680F1E7A4F80680EEE79AF800000128EA
:1056D00020D09BF80000012820D0634800780128E2
:1056E0001FD06248007801281ED0E58097ED000A9F
:1056F00020EE290ABDEEC00A10EE100A208166488D
:1057000090ED000A20EE080ABDEEC00A10EE100A65
:1057100060811AE040F62820E080E7E7A4F80690D0
:10572000E4E7A4F80680E1E7E680DFE7FBF742FB69
:1057300002283BD0FBF73EFBB8B3FBF73BFB03284B
:1057400060D0FBF737FB01285CD0B4F90A00A080D9
:10575000B4F9061021802289524200E0D0E013B251
:105760006380CC18221800EE102A4C4ACD1AB8EEED
:10577000C00A0544041B82ED0C0A00EE105A591AA7
:105780000844B8EEC00A82ED1F0A00EE104AB8EED7
:10579000C00A82ED320A00EE100AB8EEC00A82EDAD
:1057A000450ABDEC0C8BBDE8F09FFFE79AF80000BE
:1057B000012813D09BF80000012812D02A48007855
:1057C000012812D029480078012810D0E580284906
:1057D000386888420EDD4FF4BE708FE04FF268707B
:1057E00001E040F69800E080F1E7E680EFE7A4F8FA
:1057F0000680ECE7484502D94FF6CC407EE06FF0DA
:10580000DB007BE09AF80000012813D09BF8000031
:10581000012812D014480078012812D013480078CB
:10582000012811D0E5801249386888420EDD4FF614
:10583000846063E040F6980001E04FF26870E08019
:10584000F1E7A4F80680EEE7E680ECE7484502D9E8
:105850004FF44D7052E0DC2050E00000000020C109
:10586000D8F5FFFF00008C4215010020EE0000205B
:1058700000002041F700002044000020A00000208C
:105880000000000000E085400100000000E09540BD
:105890000100000000E095C01C010020A0030020D2
:1058A000FBF788FA012832D19AF80000012813D0BA
:1058B0009BF80000012812D032480078012812D04D
:1058C00031480078012811D0E58030493868884295
:1058D0000EDD4FF6F80011E040F6980001E04FF2BF
:1058E0006870E080F1E7A4F80680EEE7E680ECE778
:1058F000484501D92681AEE64FF650302081AAE610
:1059000048457FF6B1AEADE6FBF754FA10B1E5803D
:105910002581A9E69AF80000012812D09BF8000022
:10592000012811D017480078012811D016480078B6
:10593000012810D0E5801549386888420DDD2681A0
:1059400011E040F6980001E04FF26870E080F2E765
:10595000A4F80680EFE7E680EDE7484502D9A4F811
:10596000088000E025810A480068884202DD40F690
:105970004850CDE6484502D940F69800C8E64FF4B5
:105980002F60C5E615010020EE0000200000204138
:105990001C010020F0B50020FBF7A4FA0027164CEC
:1059A0004CF25036012813D067810120FBF79AFA98
:1059B000012813D0A7810025A8B2FBF72BFA0128F4
:1059C00012D004EB450047816D1C102DF4DBF0BDB7
:1059D0006089B042E9D20E306081E6E7A089B0422A
:1059E000E9D20E30A081E6E704EB4501C889B04258
:1059F000EAD20E30C881E7E7F80200201248012100
:105A000090F8302090F846309A4200D0817190F89A
:105A1000312090F847309A4200D0C17190F842206E
:105A200090F858309A4200D0017290F8432090F8D4
:105A300059309A4200D04172B0F84410B0F85A2060
:105A40005140C18570470000F8020020FEE70000C9
:105A500030B50C46050014D0022C12D90A48A11EFC
:105A600002882846FBF7B2F92919C2B211F8023CA4
:105A70009A4206D111F8011CB1EB102F01D101207F
:105A800030BD002030BD00000000002030B50C46C5
:105A900005000CD0022C0AD9FF22611EFBF7ACF9DD
:105AA000291911F8011C814201D1012030BD0020CB
:105AB00030BD03B401984100009850EAC12018BFDE
:105AC00004204A0D18BF40F0010040F2FF72B2EB13
:105AD000515F08BF40F00200012808BF052002B056
